:020000040800F2
:10000000001E0020511F0008C1010008C3010008A4
:10001000C7010008CB010008CF0100080000000064
:10002000000000000000000000000000D3010008F4
:10003000D501000800000000D701000809180008D9
:100040006B1F00086B1F00086B1F00086B1F000868
:100050006B1F00086B1F0008D3030008EB030008A8
:100060006B1F00086B1F0008030400086B1F0008CB
:100070006B1F00086B1F00086B1F00086B1F000838
:100080006B1F00086B1F00086B1F00086B1F000828
:10009000BF1600086B1F00086B1F00086B1F0008CD
:1000A0006B1F00086B1F00086B1F00086B1F000808
:1000B0006B1F00086B1F00086B1F00086B1F0008F8
:1000C0006B1F00086B1F00086B1F00086B1F0008E8
:1000D0006B1F00089B0800082F0C0008670E000823
:1000E0006B1F00086B1F00086B1F00086B1F0008C8
:1000F0006B1F00086B1F00086B1F00086B1F0008B8
:100100006B1F00086B1F00086B1F00086B1F0008A7
:1001100051110008FF1300086B1F00086B1F000837
:100120006B1F00086B1F00086B1F00086B1F000887
:10013000DFF810D003F042FF004800475B010008E1
:10014000AFF30080001E002041F6641148430021F7
:1001500000E0491C8142FCD370477D244FF4A0602D
:1001600001F0DAFF4FF4E13000F02EFB01F026FB46
:1001700000F032F800F080F8C820FFF7E5FF0F48E4
:100180004088002813DD0D48007930386421484349
:100190000A494979303901EB810100EB41010748F7
:1001A00080790844303884B20020044948802046D1
:1001B00001F004FA01E003F0C2FCFCE77C0000203F
:1001C000704700BFFEE700BFFEE700BFFEE700BFCD
:1001D000FEE770477047704708B50121102003F013
:1001E000D5F90121082003F0D1F92020ADF8000055
:1001F00010208DF8030003208DF8020069461C488A
:1002000002F008FF0420ADF8000010208DF8030074
:1002100003208DF802006946164802F0FBFE2021FB
:10022000134802F0A6FF0421124802F0A2FF08BD05
:1002300010B520210E4802F08DFF20B920210C4876
:1002400002F095FF03E02021094802F092FF10BD63
:1002500010B50421074802F07DFF20B904210548AC
:1002600002F085FF03E00421024802F082FF10BD86
:1002700000100140000C01401FB50121084603F0A9
:1002800085F90121FC2003F081F90120ADF80C0073
:1002900028208DF80F0001208DF80E0003A9B54825
:1002A00002F0B8FE06208DF8080001208DF8090044
:1002B00000208DF80A0001208DF80B0002A801F043
:1002C00030FF0021084602F0BBFF01200090002013
:1002D0008DF8040008208DF8050001208DF8060037
:1002E000684602F0B7FD0220ADF80C0048208DF8FA
:1002F0000F0001208DF80E0003A99E4802F08AFE2F
:1003000007208DF8080001208DF8090000208DF8E5
:100310000A0001208DF80B0002A801F002FF012164
:10032000002002F08DFF0220009000208DF80400D4
:100330000C208DF8050001208DF80600684602F0BB
:1003400089FD1020ADF80C0048208DF80F00012029
:100350008DF80E0003A9874802F05CFE0A208DF894
:10036000080001208DF8090000208DF80A00012006
:100370008DF80B0002A801F0D4FE0421002002F049
:100380005FFF1020009000208DF804000C208DF8F5
:10039000050001208DF80600684602F05BFD1FBDD8
:1003A00075490978012903D101200021724A117091
:1003B00071490978022903D1022000216E4A117087
:1003C0006D490978032903D1032000216A4A11707D
:1003D000704710B5012002F0A3FD28B1012002F002
:1003E000B0FD01206449087010BD10B5022002F074
:1003F00097FD28B1022002F0A4FD02205E4908709A
:1004000010BD10B5102002F08BFD28B1102002F0B5
:1004100098FD03205849087010BD10B557A003F08F
:100420000DFE10BD10B557A003F008FE10BD10B5AD
:1004300056A003F003FE10BD70B5054665B9012056
:10044000544908700020544908700121494802F0BD
:1004500074FE5249087010E0012D06D10221454872
:1004600002F06BFE4D49087007E0022D05D1102106
:10047000404802F062FE4949087001F0CFF984B2A9
:100480004748007830B1012810D0022826D0032830
:100490006DD146E0414800783E490978884204D150
:1004A00001203F4908703F48048060E03B480078E5
:1004B00039490978884210D13B480078401C3A49B4
:1004C000087008460078022802D13549087002E019
:1004D0000320334908703548048048E032480078EA
:1004E000022809D1314800882E490988401AB0F500
:1004F0007A7F01DAFFF79BFF2B48007801280AD1A9
:1005000028480088201AB0F57A7F02DDFFF78AFFBD
:1005100001E0FFF782FF002023490870204908709E
:1005200025E01E4800781B490978884216D11D48ED
:1005300004801E480088201AC82803DC01201849BE
:10054000087013E019480088201AC8280EDD012021
:100550001349087000201449087007E01348008808
:10056000201AC82802DD02200D49087000BF00BF14
:1005700070BD00000008014000000020B5A5BBF7D9
:100580000D0A0000B3A4B0B40D0A0000CBABBBF75A
:100590000D0A0000020000200300002001000020DE
:1005A00005000020060000200400002008000020B4
:1005B00030B587B004460D4603208DF81A0002209E
:1005C0008DF815008DF8160001208DF817000195A3
:1005D0000020ADF80800ADF80A00ADF80C00ADF849
:1005E00010000C20ADF80E000121FC2002F0CEFF1F
:1005F000FB48844222D10121880302F0C7FF601525
:10060000ADF8180018208DF81B0006A9F54802F077
:1006100001FD2015ADF8180048208DF81B0006A933
:10062000F04802F0F7FC25208DF814000120EE4977
:100630000870002048800120EC490870EC48844292
:1006400024D10121480402F0AEFF0420ADF81800C7
:1006500018208DF81B0006A9E24802F0DBFC0820F8
:10066000ADF8180048208DF81B0006A9DD4802F0FF
:10067000D1FC26208DF814000120DB4981F804020A
:100680000020A1F806020220D8490870D948844207
:1006900024D10121880402F086FF2015ADF818004E
:1006A00018208DF81B0006A9D34802F0B3FCE01413
:1006B000ADF8180048208DF81B0006A9CE4802F0BE
:1006C000A9FC27208DF814000120C74981F80803F0
:1006D0000020A1F80A030320C4490870C7488442D7
:1006E00020D10121C80402F05EFF2015ADF81800EA
:1006F00018208DF81B00E014ADF8180048208DF884
:100700001B0006A9BE4802F085FC34208DF81400B9
:100710000120B54981F80C040020A1F80E04042042
:10072000B2490870B748844224D10121080502F07B
:100730003AFFA014ADF8180018208DF81B0006A988
:10074000AF4802F067FC0420ADF8180048208DF88F
:100750001B0006A9AC4802F05DFC35208DF81400A2
:100760000120A14981F810050020A1F812050520FB
:100770009E49087005A801F0D4FC204602F06AFFEB
:1007800001A9204602F0A9FF002240F2277120466D
:1007900003F03BF8012240F22551204603F035F8E2
:1007A000012240F22441204603F02FF80121204687
:1007B00003F01FF895A003F041FC8C480178A3A03A
:1007C00003F03CFC07B030BD10B586B004460121F3
:1007D000880302F0DBFE0121042002F0D7FE4FF473
:1007E0000070ADF8140003208DF8160018208DF865
:1007F000170005A97B4802F00DFC4FF48060ADF8AE
:10080000140048208DF8170005A9764802F002FC74
:1008100025208DF8100002208DF811008DF81200AF
:1008200001208DF8130004A801F07BFC6C4802F055
:1008300011FF00940020ADF80400ADF80600ADF8FB
:100840000800ADF80C000C20ADF80A0069466448B9
:1008500002F043FF002240F22771614802F0D5FF09
:10086000012240F225515E4802F0CFFF012240F202
:1008700024415B4802F0C9FF0121594802F0B9FF49
:100880000120594908700020488060A003F0D6FB81
:100890007CA003F0D3FB06B010BD10B540F225518B
:1008A0004F4803F097F8012814D183480088B0F529
:1008B000007F03DB4A4803F00DF810BD484803F001
:1008C00009F8C1B27C4802880088401C7A4B188025
:1008D0007A48815440F22441414803F07BF80128D2
:1008E0001AD10020404948804FF4007273493E48B5
:1008F000001D03F039F9704800883B49488000200A
:100900006D4908804FF400716C4803F046F9344893
:1009100000883348001D00888021314803F044F8E6
:10092000B0B1674801780078401C654A107065488E
:10093000405C2B49091D08801046007862490978FF
:10094000884205D1002240F22771254802F05DFF60
:1009500000BFB2E770B505460C4623484088002822
:100960000DDD21484288011D284603F0FDF81E4890
:100970008078207000201C494880207870BD0020BD
:10098000FCE770B504460D4600200AE0225C4E49A3
:100990000B780978491C4C4E31704A49CA54411CA5
:1009A000C8B2A842F2DB0E480C30008800F080008C
:1009B00028B9012240F22771094802F026FF70BDD4
:1009C00070B504460025264601E0681C85B216F87D
:1009D000011B0029F9D1E9B22046FFF7D2FF70BD13
:1009E00000380140000801407C0000201C0000206D
:1009F0000044004000480040000C0140004C004012
:100A00000010014000500040001401400D0D0D3D4C
:100A10003D3D3D3D3D3D3D3D3D3D20C4A7C5AEBFB7
:100A2000AAB7A2B0E52053544D33324631303320BB
:100A3000CDE2C9E8B3F5CABCB1A8B8E6203D3D3D5A
:100A40003D3D3D3D3D3D3D3D0D0000005553415276
:100A5000542564B3F5CABCBBAFC5E4D6C32020207F
:100A6000202020BDD3CAD5D6D0B6CFA1A2BFD5CF26
:100A7000D0D6D0B6CF2C20B7A2CBCDD6D0B6CF0D06
:100A800000000000555341525431B3F5CABCBBAF0E
:100A9000C5E4D6C3202020202020BDD3CAD5D6D07F
:100AA000B6CFA1A2BFD5CFD0D6D0B6CF2C20B7A27B
:100AB000CBCDD6D0B6CF0D001E000020900B00206D
:100AC0000C000020900600200D00002070B58CB0B6
:100AD00004460025264600E06D1C16F8011B00297F
:100AE000FAD100BFFE4802F061F90028FADCFD48A7
:100AF000007840BB0120FB49087001228021FA48A0
:100B000002F0A8FE0121084602F033FD0021F4485E
:100B100002F035F9F448001D01900020079005907F
:100B200002940890802006901020039040010490C9
:100B3000002009900B904FF480500A9001A9E848DA
:100B400002F0F2F800BF0021E54802F018F9A9B25E
:100B5000E34802F029F9E248443804650121E048FD
:100B600002F00DF90CB070BD10B586B0044601213D
:100B7000480402F018FD0121042002F007FD0420C2
:100B8000ADF8140003208DF8160018208DF817001A
:100B900005A9D64802F03EFA0820ADF81400482016
:100BA0008DF8170005A9D14802F034FA26208DF8F7
:100BB000100002208DF811008DF8120001208DF830
:100BC000130004A801F0ADFA00940020ADF8040071
:100BD000ADF80600ADF80800ADF80C000C20ADF83B
:100BE0000A006946C24802F078FD002240F22771EF
:100BF000BF4802F00AFE012240F22551BC4802F033
:100C000004FE012240F22441B94802F0FEFD012118
:100C1000B74802F0EEFD0120B64981F80402002039
:100C2000A1F80602B4A003F009FA06B010BD10B591
:100C300040F22551AE4802F0CDFE012813D1BC4848
:100C40000088FF2803DDAA4802F044FE10BDA84832
:100C500002F040FEC1B2B64802880088401CB44B86
:100C60001880B4488154A248008800F01000D8B120
:100C70000020A049A1F806024FF48072AD49AE48A9
:100C800002F072FFAA4800889A49A1F806020020E3
:100C9000A74908804FF48071A64802F07EFF94486F
:100CA00000889348001D00889148008800F080006B
:100CB000F0B18F480C30008800F08000C0B19F4830
:100CC00001780078401C9D4A10709D48405C88491E
:100CD000091D0880104600789A490978884207D192
:100CE00083480C30008820F0800081490C31088056
:100CF00000BFABE770B505460C467E48B0F806026B
:100D0000002810DD7B48B0F806228B49284602F007
:100D10002BFF784890F80602207000207549A1F852
:100D20000602207870BD0020FCE770B50246002066
:100D30000AE0145C834B1D781B785B1C814E33707A
:100D40007F4B5C55431CD8B28842F2DB68480C30BC
:100D5000008800F0800038B965480C30008840F009
:100D60008000634B0C33188070BD70B504460025BD
:100D7000264601E0681C85B216F8011B0029F9D14E
:100D8000E9B22046FFF7D1FF70BD10B586B004462A
:100D90006D48C06940F480206B49C861084680698D
:100DA00040F0080088610815ADF8140003208DF8A4
:100DB000160018208DF8170005A9644802F02AF9DA
:100DC0004FF40060ADF8140048208DF8170005A915
:100DD0005E4802F01FF927208DF8100002208DF8E0
:100DE00011008DF8120001208DF8130004A801F005
:100DF00098F9574802F02EFC00940020ADF804004A
:100E0000ADF80600ADF80800ADF80C000C20ADF808
:100E10000A0069464E4802F060FC002240F2277149
:100E20004B4802F0F2FC012240F22551484802F002
:100E3000ECFC012240F22441454802F0E6FC01218D
:100E4000434802F0D6FC4FF60F704149088001205C
:100E5000284981F808030020A1F80A033DA003F007
:100E6000EDF806B010BD10B53948008800F020003C
:100E700098B146480088FF2803DD3548001D0088EA
:100E800010BD3348001D0088C1B240480288008868
:100E9000401C3E4B18803E4881542D48008800F08D
:100EA0001000D8B100201349A1F80A034FF4807252
:100EB0003749384802F058FE344800880D49A1F8F7
:100EC0000A030020314908804FF48071304802F055
:100ED00064FE1F4800881E48001D5DE05DE00000C4
:100EE000440002402000002000380140000801407A
:100EF000004400407C0000200D555341525432B351
:100F0000F5CABCBBAFC5E4D6C3202020202020BD3D
:100F1000D3CAD5D6D0B6CFA1A2BFD5CFD0D6D0B662
:100F2000CF2C20B7A2CBCDD6D0B6CF0D000000007D
:100F300022000020900D0020840200200E000020DE
:100F4000900700200F00002000100240000C01401C
:100F5000004800400D555341525433B3F5CABCBB51
:100F6000AFC5E4D6C3202020202020BDD3CAD5D6CB
:100F7000D0B6CFA1A2BFD5CFD0D6D0B6CF2C20B778
:100F8000A2CBCDD6D0B6CF0D0000000024000020AB
:100F9000900E0020880300200088F848008800F0A8
:100FA0008000F0B1F5480C30008800F08000C0B13E
:100FB000F34801780078401CF14A1070F148405C19
:100FC000EE49091D088010460078EF4909788842EB
:100FD00007D1EA480C30008820F08000E7490C3146
:100FE000088000BF4CE770B505460C46E748B0F8EE
:100FF0000A03002811DDE548B0F80A2300F5437123
:10100000284602F0B1FDE14890F80A032070002064
:10101000DE49A1F80A03207870BD0020FCE770B516
:10102000024600200AE0145CD74B1D781B785B1C3D
:10103000D54E3370D34B5C55431CD8B28842F2DB9B
:10104000CE480C30008800F0800038B9CB480C3016
:10105000008840F08000C94B0C33188070BD70B51B
:1010600004460025264601E0681C85B216F8011BDF
:101070000029F9D1E9B22046FFF7D1FF70BD10B5C4
:1010800086B00446C248C06940F40020C049C86127
:101090000846806940F0100088610815ADF814001A
:1010A00003208DF8160018208DF81700C814ADF82D
:1010B000140048208DF8170005A9B64801F0AAFFD2
:1010C00034208DF8100002208DF811008DF81200E8
:1010D00001208DF8130004A801F023F8AE4802F0B7
:1010E000B9FA00940020ADF80400ADF80600ADF8A0
:1010F0000800ADF80C000C20ADF80A006946A648BF
:1011000002F0EBFA002240F22771A34802F07DFBC7
:10111000012240F22551A04802F077FB012240F263
:1011200024419D4802F071FB01219B4802F061FBC4
:101130004FF60F70984908800120944981F80C04FB
:101140000020A1F80E0495A002F078FF06B010BDB3
:1011500010B59148008800F0200098B19D480088A3
:10116000FF2803DD8C48001D008810BD8A48001D43
:101170000088C1B2974802880088401C954B1880AF
:10118000954881548448008800F01000D8B10020B0
:101190007E49A1F80E044FF480728F498F4802F007
:1011A000E3FC8C4800887949A1F80E0400208949A5
:1011B00008804FF48071884802F0EFFC7648008880
:1011C0007548001D00887448008800F08000F0B168
:1011D00071480C30008800F08000C0B18048017870
:1011E0000078401C7E4A10707E48405C6A49091DA8
:1011F0000880104600787C490978884207D1664803
:101200000C30008820F0800063490C31088000BF5A
:10121000ABE770B505460C465C48B0F80E040028F4
:1012200010DD5A48B0F80E246C49284602F09CFCA8
:10123000564890F80E04207000205449A1F80E047E
:10124000207870BD0020FCE770B5024600200AE05F
:10125000145C654B1D781B785B1C634E3370614BCF
:101260005C55431CD8B28842F2DB4B480C300088F6
:1012700000F0800038B948480C30008840F0800009
:10128000454B0C33188070BD70B5044600252646CA
:1012900001E0681C85B216F8011B0029F9D1E9B2FA
:1012A0002046FFF7D1FF70BD10B586B00446384820
:1012B000C06940F480103649C8610846806940F032
:1012C000300088618814ADF8140003208DF81600F2
:1012D00018208DF8170005A92E4801F09BFE042068
:1012E000ADF8140048208DF8170005A93F4801F01B
:1012F00091FE35208DF8100002208DF811008DF838
:10130000120001208DF8130004A800F00AFF3848ED
:1013100002F0A0F900940020ADF80400ADF806003A
:10132000ADF808000C20ADF80A000020ADF80C0064
:1013300069462F4802F0D1F9002240F227712C486B
:1013400002F063FA012240F22551294802F05DFAC9
:10135000012240F22441264802F057FA0121244894
:1013600002F047FA4FF60F70214908800120074923
:1013700081F810050020A1F812053BE0004800406C
:101380001000002090080020110000207C000020A8
:101390000010024000100140004C00400D55415229
:1013A000543420B3F5CABCBBAFC5E4D6C32020205B
:1013B000202020BDD3CAD5D6D0B6CFA1A2BFD5CFCD
:1013C000D0D6D0B6CF2C20B7A2CBCDD6D0B6CF0DAD
:1013D0000000000026000020900F00208C04002058
:1013E000120000209009002013000020001401408A
:1013F000005000405AA002F021FE06B010BD10B50A
:101400006548008800F0200088B164480088FF2803
:1014100002DD6148808810BD5F488088C1B25F48A6
:1014200002880088401C5D4B18805D4881545A48F2
:10143000008800F01000D0B100205A49A1F8120530
:101440004FF480725649584802F08EFB534800888A
:101450005449A1F812050020504908804FF48071CA
:101460004F4802F09AFB4C4800884B4880884A4815
:10147000008800F08000D0B14748808900F08000EB
:10148000A8B14A4801780078401C484A1070484882
:10149000405C414988801046007846490978884276
:1014A00005D13D48808920F080003B49888100BFFC
:1014B000B1E770B505460C463A48B0F81205002869
:1014C00010DD3848B0F812253749284602F04CFBA9
:1014D000344890F81205207000203249A1F8120516
:1014E000207870BD0020FCE770B5024600200AE0BD
:1014F000145C304B1D781B785B1C2E4E33702C4BCC
:101500005C55431CD8B28842F2DB2348808900F046
:10151000800028B92048808940F080001E4B9881C7
:1015200070BD70B504460025264601E0681C85B2F2
:1015300016F8011B0029F9D1E9B22046FFF7D4FFC4
:1015400070BD00BF704700BF1B4A128802F0400206
:10155000002AF9D0C2B2184B1B1D1A807047000038
:101560000D554152543520B3F5CABCBBAFC5E4D6C6
:10157000C3202020202020BDD3CAD5D6D0B6CFA1ED
:10158000A2BFD5CFD0D6D0B6CF2C20B7A2CBCDD648
:10159000D0B6CF0D00000000005000402800002011
:1015A000901000207C0000209005002014000020F6
:1015B000900A0020150000200038014010B58AB0C4
:1015C00004460121480601F0EEFF0121042001F04C
:1015D000DDFF4FF48050ADF8240018208DF827006F
:1015E00003208DF8260009A9604801F013FD4FF48F
:1015F0000060ADF8240048208DF8270003208DF806
:10160000260009A9594801F005FD01208DF81F00A9
:101610008DF8200000208DF81A0001208DF821009F
:101620008DF8220000208DF81E008DF823007D200B
:1016300094FBF0F0302191FBF0F080B2ADF818008F
:1016400001208DF81B008DF81C0002208DF81D0074
:1016500006A9474800F0E7FD01208DF8150000209D
:10166000ADF810008DF8120001208DF81400002054
:101670008DF81300ADF8080049F2A410ADF80A0087
:101680000020ADF80C00ADF80E0002A800F055FEE9
:1016900001220221364801F04FF914208DF8040090
:1016A00001208DF805008DF806008DF8070001A8CF
:1016B00000F037FD2FA002F0C1FC0AB010BD10B53C
:1016C000354A00212A4801F01CF801203249091F3F
:1016D000087010BD70B505460C4600212E48001F4D
:1016E00080F8211080F820108561C561082180F8FC
:1016F0002210217880F82310617880F82410A178D6
:1017000080F82510E17880F82610217980F82710DC
:10171000617980F82810A17980F82910E17980F8A2
:101720002A1000F11801124800F0F6FE70BD70B5E5
:1017300005461948001F0078012815D117A002F0AE
:101740007DFC002407E014480B30015D19A002F075
:1017500075FC601CC4B2082CF5DB17A002F06EFC0F
:1017600000200D49091F087070BD000000080140ED
:101770000064004043414E20CDA8D0C5C5E4D6C387
:1017800020202020202020202020C5E4D6C3CDEA20
:10179000B3C90D0A00000000941100200D0A3C3C62
:1017A00043414EBDD3CAD5B5BDCAFDBEDD3A3E3EAE
:1017B00020200000256300000D0A000010B5FE483F
:1017C000FE49086000F051FCFC4800684FF47A7153
:1017D000B0FBF1F4601E4FF0E02148610020886109
:1017E00008610846006940F0040008610846006985
:1017F00040F0020008610846006940F001000861FD
:10180000EFA002F01BFC10BDF648D0E900305A1CD6
:1018100040F10000F349C1E900207047F14903C9D4
:1018200070472DE9F04700BFFFF7F8FF04464FF07F
:10183000E02040694FF0E0218969401A4FF47A7145
:1018400048434FF0E0214969B0FBF1F9484602F006
:10185000A9FA0746204602F0A5FA8146E24902F0BD
:101860006FFA8046394602F013FA064602F09FFAF4
:101870000546FFF7D3FF60400843D5D12846BDE8B1
:10188000F08730B50246FFF7C9FFD84B03C300BF4E
:10189000FFF7C4FFD54BD3E9005304460846194669
:1018A000631B60EB01009B1A70F10000F0D330BDA8
:1018B00070B50446FFF7B5FF0026054600BFFFF7E9
:1018C000B0FF0021421B61EB0601121B71F1000108
:1018D000F5D370BD10B5C6480068C6490860FFF76B
:1018E000A0FFC3490860C348006828B108460068E3
:1018F000C0490968401A10BD0020FCE710B5FFF789
:10190000E9FF044654B9BCA002F098FBC148007836
:10191000401CC0490870FFF7DDFF10BDBD480178CD
:101920000078401CBB4B18702246BBA002F086FB1F
:10193000FFF7D0FF00BFF0E72DE9F0411446002586
:101940000026BD4A904205D1BC4A926942F0040289
:10195000BA4FBA61BA4A904205D1B84A926942F088
:101960000802B64FBA61B74A904205D1B34A9269AC
:1019700042F01002B14FBA61B34A904205D1AF4A6A
:10198000926942F02002AD4FBA61B04A904205D14F
:10199000AA4A926942F04002A84FBA6103F00303D9
:1019A00003B90323182C1FD007DC6CB1042C0DD015
:1019B000102C14D0142C1AD10EE01C2C11D0282C71
:1019C00006D0482C13D105E0002512E0042510E0D4
:1019D00008250EE008250CE043F0040509E01D464B
:1019E00007E043F00C0504E043F0080501E00025A2
:1019F00000BF00BF002218E0012707FA02F601EA43
:101A000006078FB107684FEA82084FF00F0C0CFAF7
:101A100008FC27EA0C07076007684FEA820C05FA02
:101A20000CFC47EA0C070760521C082AE4D300228A
:101A30001BE002F108074FF0010C0CFA07F601EA6F
:101A400006078FB147684FEA82084FF00F0C0CFA77
:101A500008FC27EA0C07476047684FEA820C05FA42
:101A60000CFC47EA0C074760521C082AE1D3482CBB
:101A700002D102690A430261282C03D1026942EAB9
:101A800001420261BDE8F08170B50B4670490978EA
:101A900029B97049704A116001216D4A11706F496E
:101AA000095C21F0F0026D490A5419070A0E6B49CE
:101AB0000A54C41700EBD4646411A40004F1E024B8
:101AC000D4F800410246C51700EBD5656D11A0EBB7
:101AD00045160125B5402C430146C51700EBD565D9
:101AE0006D11AD0005F1E025C5F8004170BD2DE98F
:101AF000F04103461446002600204F4A934200D18D
:101B000000BF4F4A934200D101264E4A934200D172
:101B100002264D4A934200D103264C4A934200D1FB
:101B200004264F4A934200D105264E4A934200D1E3
:101B30000626002207E0012797408F4201D1104678
:101B400003E0571CFAB2102AF5DB00BF0246C717A4
:101B500000EB9777BF10A0EB8707BF063D0E374A13
:101B6000926942F00102354FBA61C71700EB9777CF
:101B70004FEAA70C3C4F57F82C704FF00F0C0CFAA3
:101B800005FC27EA0C0702464FEAE07C00EB9C7C50
:101B90004FEAAC08DFF8D0C04CF82870C71700EB4C
:101BA00097774FEAA70C304F57F82C7006FA05FCD0
:101BB00047EA0C075AE00000A25D4F005C000020DD
:101BC0005379735469636BCAB1D6D3C5E4D6C320C5
:101BD000202020202020316D73D6D0B6CF31B4CE56
:101BE0000D0000003000002000007A443800002082
:101BF0004400002040000020A1BED4CBD0D0CAB108
:101C0000B3A42DB2E2CAD4D4ADB5E3B7C5D6C3A14F
:101C1000BF0D000048000020A1BED4CBD0D0CAB177
:101C2000B3A42DBCE0B2ECB5E32D25643A2539759B
:101C3000207573A1BF0D0000000801400010024094
:101C4000000C014000100140001401400018014048
:101C5000490000200003FA050CED00E000E400E07C
:101C6000001C014000200140080001404FEAE07CD8
:101C700000EB9C7C4FEAAC08DFF8A0C24CF828705F
:101C8000A74A12680A43A64F3A6004F0010232B133
:101C9000A34A0C3212680A43A14F0C373A6004F091
:101CA000020232B19E4A083212680A439C4F08373A
:101CB0003A60BDE8F0819B48806940F00100994995
:101CC000886196480838406820F0E06093490839F8
:101CD00048600846406840F000704860704710B5A2
:101CE00000F0C3F99048006810BD90489049086022
:101CF000704730BF704772B6704762B6704700B524
:101D00008B48001D006840F004008949091D0860E7
:101D10008448C06940F080508249C8618548406865
:101D200040F48070834948600846006840F0040031
:101D300008600846006840F002000860FFF7D9FF1D
:101D400000BD7849496821F07061764A51601146BA
:101D5000496800F00F0241EA0261724A516070471F
:101D6000014600BF7448C06800F0010018B1081EA9
:101D7000A1F10101F6D109B9012070470020FCE76B
:101D800030B503466D480488B3F1006F01D20120DD
:101D900030BD4FF0006000EB8420984201D2022059
:101DA000F6E703E018780870491C5B1C101EA2F1CE
:101DB0000105AAB2F6D100BFEAE72DE9F84F804647
:101DC000894616465D48B0F800A0A8F1006B4FEABE
:101DD000DB25CBF30A0000900098C0F50067B8F14E
:101DE000006F02D20120BDE8F88F4FF0006000EBD9
:101DF0008A20404501D20120F5E751484E4948600C
:101E000050484860BE4200DC37467DE04E48FFF750
:101E1000A7FF08B10220E6E74FF0006101EBC52003
:101E20000A144A49FFF7ACFF4748FFF799FF08B18A
:101E30000220D8E74048006940F002003E490861AE
:101E40004FF0006000EBC52048610846006940F093
:101E5000400008613C48FFF783FF08B10220C2E759
:101E60003548006941F6FD7108403349086100209A
:101E700007E019F8002000990144344B5A54411CE2
:101E800088B2B842F5DB00242AE02F48FFF768FF4C
:101E900008B10220A7E72848006940F00100264960
:101EA00008612A4810F81400012101EB4401274A77
:101EB000515C40EA01204FF0006101EBC52121F89F
:101EC00014002148FFF74CFF08B102208BE71A48A5
:101ED000006941F6FE71084017490861601C84B230
:101EE000B4F5806FD1DBB74200D10EE0B9446D1C70
:101EF00000200090F01B86B2B6F5006F02DD4FF4B3
:101F0000006000E03046074680E700BF0A480069ED
:101F100040F0800008490861002064E708000140A3
:101F200000040140001002405C0000200400FA059B
:101F30000CED00E00070004000200240E0F7FF1FC1
:101F400023016745AB89EFCD88888800FE1100200A
:101F50000648804706480047FEE7FEE7FEE7FEE743
:101F6000FEE7FEE7FEE7FEE7FEE7FEE7751F000877
:101F7000310100080CB56048006840F001005E497E
:101F80000860084640685D4908405B49486008466B
:101F9000406820F4FE0048604FF41F008860002075
:101FA000019000900846006840F48030086000BF4F
:101FB0005148006800F4003000900198401C0190E6
:101FC000009818B90198B0F5A06FF1D14A4800689F
:101FD00000F40030002843D04948006840F0100069
:101FE000474908600846006820F00300086008467A
:101FF000006840F0020008603F4840683E49486081
:102000000846406848600846406840F48060486080
:102010000846406820F47C1048600846406840F458
:10202000E81048600846006840F08070086000BF13
:102030003148006800F000700028F9D02E48406850
:1020400020F003002C4948600846406840F0020038
:10205000486000BF2848406800F00C000828F9D10B
:102060004FF00060274908600CBD10B5002100202A
:102070000022214B5B6803F00C0121B1042906D03A
:10208000082928D107E0204B204C236027E01E4B75
:102090001E4C236023E0184B5B6803F47010164B52
:1020A0005B6803F48032022303EB904022B9184BA3
:1020B0004343164C23600DE00F4B5B6803F4003381
:1020C00023B1134B4343114C236003E00E4B4343B6
:1020D0000E4C236003E00C4B0C4C236000BF00BF90
:1020E000054B5B68C3F303130A4CE15C074B1B68A9
:1020F000CB40064C236010BD001002400000FFF8EA
:102100000020024008ED00E000127A005C00002090
:1021100000093D004C00002031490143314A116063
:10212000704770B5002100230F22C47804B32D4CF2
:10213000246804F4E064C4F5E064210AC1F10403F6
:10214000CA40447804FA03F1847814402143090119
:10215000254C0678A155047804F01F050124AC40F5
:1021600005786D11AD0005F1E025C5F8004109E0E5
:10217000047804F01F050124AC401C4D067876114C
:1021800045F8264070BD1A4A0A400243154B1B1FF2
:102190001A60704739B1134A121D12680243114B7D
:1021A0001B1D1A6006E00F4A121D126882430D4B78
:1021B0001B1D1A607047042808D14FF0E0210969FF
:1021C00041F004014FF0E022116107E04FF0E021FF
:1021D000096921F004014FF0E0221161704700000D
:1021E0000000FA050CED00E000E400E080E100E012
:1021F00080FFFF1F10B50446FE48844209D101212B
:10220000480601F0EAF900214FF0007001F0E5F90D
:1022100008E00121880601F0E0F900214FF080601C
:1022200001F0DBF910BD30B5024600200023146830
:1022300024F002041460146844F00104146000E007
:102240005B1C546804F001041CB94FF6FF74A342F0
:10225000F6D1546804F001040CB900206CE08C79CC
:10226000012C04D1146844F08004146003E0146865
:1022700024F080041460CC79012C04D1146844F05B
:102280004004146003E0146824F0400414600C7AE5
:10229000012C04D1146844F02004146003E0146895
:1022A00024F0200414604C7A012C04D1146844F00A
:1022B0001004146003E0146824F0100414608C7A95
:1022C000012C04D1146844F00804146003E014687D
:1022D00024F008041460CC7A012C04D1146844F072
:1022E0000404146003E0146824F0040414608C787F
:1022F000A407CD7844EA05640D7944EA05444D7994
:1023000044EA05540D886D1E2C43D461146824F0F2
:1023100001041460002300E05B1C546804F0010415
:102320001CB14FF6FF74A342F6D1546804F00104C7
:102330000CB1002000E0012030BD10B50021837AEF
:10234000012202FA03F1AC4A126842F00102AA4BE0
:102350001A60A94A1C3212688A43A74B1C331A60C0
:10236000027BCAB9A44A0C3212688A43A24B0C33CE
:102370001A604288C38842EA03439F4A4032847A03
:1023800042F834300288838842EA03439A4A403252
:10239000847A02EBC4025360027B012A19D1964A67
:1023A0000C3212680A43944B0C331A60428803883B
:1023B00042EA0343904A4032847A42F83430C28879
:1023C000838842EA03438C4A4032847A02EBC40297
:1023D0005360C27A3AB9884A121D12688A43864B02
:1023E0001B1D1A6006E0844A121D12680A43824BC4
:1023F0001B1D1A60028932B97F4A143212688A435F
:102400007D4B14331A600289012A06D17A4A1432AC
:1024100012680A43784B14331A60427B012A06D1B2
:10242000754A1C3212680A43734B1C331A60724A95
:10243000126822F00102704B1A6010BD00218171F8
:10244000C171017241728172C1728170C1700321C8
:1024500001710221417101210180704766490968BB
:1024600041F00101644A11601146096843F60E7299
:102470009143614A11601146096841EA00211160E7
:102480001146096821F001011160704721B102680D
:1024900042F48032026003E0026822F4803202607B
:1024A0007047E1B1026842F0800202604FF4C272EC
:1024B000125842F480734FF4C27213504FF4CA7230
:1024C000125842F480734FF4CA7213504FF4D27210
:1024D000125842F480734FF4D27213501BE002681A
:1024E00022F0800202604FF4C272125822F480730C
:1024F0004FF4C27213504FF4CA72125822F4807310
:102500004FF4CA7213504FF4D272125822F48073EF
:102510004FF4D2721350704710B5024600209368F2
:1025200003F08063B3F1806F00D110E0936803F093
:102530000063B3F1006F01D1012008E0936803F05C
:102540008053B3F1805F01D1022000E00420042811
:1025500079D002F5C07303EB00131B6803F001048C
:1025600002F5C07303EB00131C600B7A7BB94B7A46
:102570000C8843EA445302F5C07404EB0014246849
:10258000234302F5C07404EB0014236010E00B7ABF
:102590004C6843EAC4034C7A234302F5C07404EB4D
:1025A00000142468234302F5C07404EB0014236074
:1025B0008B7A03F00F038B7202F5C07303EB0013E9
:1025C0005B6823F00F0402F5C07303EB00135C603B
:1025D00002F5C07303EB00135B688C7A234302F5AA
:1025E000C07404EB001463608B7B1C064B7B44EAD5
:1025F000034403E000640040006600400B7B44EAB3
:102600000323CC7A234302F5C07404EB0014A360C7
:102610008B7C1C064B7C44EA03440B7C44EA03237A
:10262000CC7B234302F5C07404EB0014E36002F595
:10263000C07303EB00131B6843F0010402F5C07381
:1026400003EB00131C6010BD10B50246002321B13E
:10265000012907D002290FD109E09068F94C00EA5E
:1026600004030BE09068F84C00EA040306E090686D
:10267000F64C00EA040301E0002300BF00BFF44C65
:10268000181BA34216D007DC83B16FF0806018449A
:1026900070B1022818D111E0B0F5007F10D0ED4CD8
:1026A000204448B1B0F5003F0ED10BE002230DE00D
:1026B00000230BE0002309E0002307E0012305E0ED
:1026C000012303E0012301E0002300BF00BFD8B2D3
:1026D00010BD21B1012907D002290FD109E082687C
:1026E00042F0800282600AE0826842F40042826026
:1026F00005E0826842F40002826000E000BF00BF93
:10270000704710B500F5D87303EB01131B6803F095
:1027100004031372137A53B900F5D87303EB011352
:102720001B6840F2FF7404EA5353136009E000F59C
:10273000D87303EB01131B686FF0604404EAD30302
:10274000536000F5D87303EB01131B6803F0020319
:10275000537200F5D87303EB01135B6803F00F03AA
:10276000937200F5D87303EB01135B681B0AD374F3
:1027700000F5D87303EB01139B68D37200F5D8738F
:1027800003EB01139B681C0A147300F5D87303EB69
:1027900001139B681C0C547300F5D87303EB0113F1
:1027A0009B681B0E937300F5D87303EB0113DB6872
:1027B000D37300F5D87303EB0113DB681C0A1474A0
:1027C00000F5D87303EB0113DB681C0C547400F59F
:1027D000D87303EB0113DB681B0E937421B9C36834
:1027E00043F02003C36003E0036943F02003036167
:1027F00010BD21B9C26842F02002C26003E0026944
:1028000042F02002026170470246002019B9D368E5
:1028100003F0030006E0012903D1136903F003006C
:1028200000E00020704710B502460B4600204FF62E
:10283000FF71BBB9146824F0020444F00104146071
:1028400000E0491E546804F00304012C01D0002963
:10285000F7D1546804F00304012C01D0002032E0C9
:10286000012030E0012B13D1146824F0030414601C
:1028700000E0491E546804F003040CB10029F8D1AB
:10288000546804F003040CB100201CE001201AE09D
:10289000022B17D1146824F0010444F002041460E0
:1028A00000E0491E546804F00304022C01D0002902
:1028B000F7D1546804F00304022C01D0002002E098
:1028C000012000E0002010BD014600200A6822F02F
:1028D000010242F002020A604A6802F00302022A80
:1028E00000D10120704701464FF6FF7200200B68AF
:1028F00023F002030B6000E0521E4B6803F002035A
:10290000022B01D1002AF7D14B6803F00203022BFE
:1029100000D001207047014600208A6902F0700053
:102920007047014600208A69100E7047014600205A
:102930008A69C2F3074070471AB143690B43436188
:1029400002E043698B434361704710B502460020A3
:1029500001F4700343B19369C1F3130423400BB135
:1029600001202DE000202BE001F0807343B153687B
:10297000C1F3130423400BB1012021E000201FE02C
:1029800001F0006343B19368C1F3130423400BB11A
:10299000012015E0002013E001F0007343B1D3687B
:1029A000C1F3130423400BB1012009E0002007E02C
:1029B0001369C1F3130423400BB1012000E0002090
:1029C00010BD0022244B994202D10023836111E003
:1029D000C1F3130201F000730BB1C2600AE001F011
:1029E00080630BB1026105E001F000630BB182600E
:1029F00000E0426070470246002002EA01030BB18A
:102A0000012000E00020704770B504460D46002606
:102A100060692840002872D0B5F5807F69D01DDC40
:102A2000082D42D006DC012D2DD0022D31D0042DF1
:102A30007FD134E0102D3ED0202D42D0402D78D1D2
:102A400045E000000300000400030008000003103C
:102A5000000100080001FFF77000F030B5F5004FED
:102A600061D009DCB5F5007F4AD0B5F5806F4DD057
:102A7000B5F5006F5DD150E0B5F5803F2DD0B5F5CF
:102A8000003F56D12FE0A0685549FFF7B4FF064636
:102A900051E0E0680321FFF7AEFF06464BE0E06837
:102AA0000821FFF7A8FF064645E0E0681021FFF780
:102AB000A2FF06463FE020690321FFF79CFF064680
:102AC00039E020690821FFF796FF064633E02069C8
:102AD0001021FFF790FF06462DE060680821FFF700
:102AE0008AFF064627E060681021FFF784FF06464C
:102AF00021E0A0690121FFF77EFF06461BE01BE0F5
:102B0000A0690221FFF777FF064614E0A0690421BF
:102B1000FFF771FF06460EE00BE0A0697021FFF79A
:102B20006AFF064607E060680421FFF764FF064677
:102B300001E0002600BF00E00026304670BDB1F580
:102B4000007F3AD00FDC202928D006DC01291CD0D8
:102B500004291DD0082940D11DE0402921D0B1F51C
:102B6000807F3AD126E0B1F5004F31D006DCB1F5D7
:102B7000806F25D0B1F5006F2FD124E0B1F5803FF3
:102B800012D0B1F5003F28D111E0154A826025E04E
:102B90000822C26022E01022C2601FE00822026107
:102BA0001CE01022026119E00822426016E01022A7
:102BB000426013E00422426010E0042242600DE013
:102BC000042242600AE0002282610422426005E0A1
:102BD000002282610422426000E000BF00BF704713
:102BE0000101010001684FF6FE72114001600021F1
:102BF000016041608160C1608D49884208D18C4983
:102C00000839496841F00F01894A083A51608AE061
:102C100087491431884208D185490839496841F00B
:102C2000F001834A083A51607DE0814928318842A9
:102C300008D17F490839496841F470617C4A083AF3
:102C4000516070E07A493C31884208D178490839AE
:102C5000496841F47041764A083A516063E074492A
:102C60005031884208D172490839496841F47021CD
:102C70006F4A083A516056E06D496431884208D184
:102C80006B490839496841F47001694A083A516052
:102C900049E067497831884208D16549083949686F
:102CA00041F07061624A083A51603CE061498842F3
:102CB00006D1011F096841F00F01021F116032E0C7
:102CC0005C491431884208D15A49091F096841F00A
:102CD000F001584A121F116025E0564928318842F8
:102CE00008D15449091F096841F47061514A121F03
:102CF000116018E04F493C31884208D14D49091F05
:102D0000096841F470414B4A121F11600BE04949B8
:102D10005031884207D14749091F096841F47021A1
:102D2000444A121F1160704710B50022026847F62E
:102D3000F0739A430C6A8B6823430C6923434C69F4
:102D400023438C692343CC6923434C6A23438C6A15
:102D500023431A430260CB6843600B6883604B686F
:102D6000C36010BD0021016041608160C1600161EC
:102D700041618161C161016241628162704721B13B
:102D8000026842F00102026004E002684FF6FE733E
:102D90001A40026070471AB103680B43036002E0F7
:102DA00003688B4303607047416070470146486881
:102DB00080B2704701460020002201F080531BB111
:102DC0001C4B083B1A6802E0194B083B1A6802EAE0
:102DD00001030BB1012000E00020704700F080519A
:102DE00019B11449091F086002E011490839486007
:102DF000704701460020002201F080531BB10D4BAB
:102E0000083B1A6802E00A4B083B1A6802EA010311
:102E10000BB1012000E00020704700F0805119B193
:102E20000449091F086002E00149083948607047F9
:102E30000800024008040240002044490860091DBF
:102E40000860091D0860091D086041483F491431A8
:102E50000860704700213D498279002A3AD00A462D
:102E6000126803689A430B461A600A1D12680368C9
:102E70009A430B1D1A60027911440A6803681A43C9
:102E80000A60324A0832126803689A432F4B0833AB
:102E90001A601A1D126803689A432C4B0C331A608F
:102EA0004279102A0ED11A1F126803681A43274B61
:102EB00008331A601A1D126803681A43234B0C3337
:102EC0001A600DE02149427911440A6803681A43E7
:102ED0000A6005E0027911440A6803689A430A60AF
:102EE00070470021016001710C2141710021817145
:102EF00070471649103109680143144A10321160B5
:102F0000704701460020114A143212680A400AB183
:102F1000012000E0002070470C4914310860704720
:102F2000014600200022094B1B6803EA0102074BFF
:102F300014331B680B4013B10AB1012000E00020DC
:102F400070470249143108607047000000040140D6
:102F5000FFFF0F0010B50446CC48844208D1012180
:102F6000042000F02DFB0021042000F029FB46E0A6
:102F7000C748844208D10121082000F021FB00212C
:102F8000082000F01DFB3AE0C248844208D101212C
:102F9000102000F015FB0021102000F011FB2EE0A6
:102FA000BD48844208D10121202000F009FB002106
:102FB000202000F005FB22E0B848844208D101211E
:102FC000402000F0FDFA0021402000F0F9FA16E060
:102FD000B348844208D10121802000F0F1FA002199
:102FE000802000F0EDFA0AE0AE48844207D10121CA
:102FF000801500F0E5FA0021A01500F0E1FA10BDFF
:1030000010B50121084600F0DBFA0021012000F094
:10301000D7FA10BD2DE9F041024600250026002018
:1030200000230024002791F803C00CF00F0591F84D
:1030300003C00CF0100CBCF1000F03D091F802C0DB
:103040004CEA050591F800C0BCF1000F31D01468BE
:1030500000202BE04FF0010C0CFA00F3B1F800C097
:103060000CEA03069E4220D183004FF00F0C0CFAAD
:1030700003F7BC4305FA03FC4CEA040491F803C0CF
:10308000BCF1280F06D14FF0010C0CFA00FCC2F87D
:1030900014C00AE091F803C0BCF1480F05D14FF00D
:1030A000010C0CFA00FCC2F810C0401C0828D1D357
:1030B0001460B1F800C0BCF1FF0F34DD546800208B
:1030C0002EE000F1080C4FF0010808FA0CF3B1F8FB
:1030D00000C00CEA03069E4221D183004FF00F0C82
:1030E0000CFA03F7BC4305FA03FC4CEA040491F81C
:1030F00003C0BCF1280F05D100F1080C08FA0CF848
:10310000C2F8148091F803C0BCF1480F07D100F158
:10311000080C4FF0010808FA0CF8C2F81080401CA7
:103120000828CED35460BDE8F0814FF6FF710180CE
:10313000022181700421C17070470246002093680B
:103140000B400BB1012000E0002070470146886869
:1031500080B2704702460020D3680B400BB10120BB
:1031600000E0002070470146C86880B270470161E6
:103170007047416170470AB1016100E041617047E9
:10318000C16070474FF480320A438261816182617D
:1031900082698269704702460020434B18684FF6E7
:1031A0008073184040EA021008433F4B1860704794
:1031B0003E49C8617047F0B50A460023002400214B
:1031C000002500F00046B6F1004F02D1364EF169FD
:1031D00001E0354E7168C0F3034583B200F4401638
:1031E000B6F5401F08D121F070612F4E766826F0A9
:1031F00070662D4F7E6012E000F48016B6F5801FD9
:1032000006D1032606FA05F4A14341F0706106E0F9
:10321000460D360103FA06F6B14341F0706122B162
:10322000460D360103FA06F6314300F00046B6F1CA
:10323000004F02D11C4EF16101E01B4E7160F0BDE8
:1032400030B500228B071C0F0F2303FA04F2164B34
:1032500008338C1053F824309343134C08348D10EA
:1032600044F8253023468C1053F824308C07240F63
:1032700000FA04F423430C4C08348D1044F8253034
:1032800030BD0A49DC310860704700000008014089
:10329000000C0140001001400014014000180140E2
:1032A000001C0140002001400000014000002042BD
:1032B000DF48006840F00100DD49086008464068CA
:1032C000DC490840DA49486008460068DA490840A5
:1032D000D74908600846006820F480200860084646
:1032E000406820F4FE0048604FF41F00886070477B
:1032F000CF49096821F48031CD4A1160114609682F
:1033000021F480211160B0F5803F03D0B0F5802F0B
:103310000ED106E0C649096841F48031C44A116003
:1033200007E0C349096841F4A021C14A116000E0E7
:1033300000BF00BF704710B50146002200230020E7
:103340004A11012A02D1BA4C236806E0022A02D1AE
:10335000B74C236A01E0B64C636A01F01F020124F6
:1033600094401C400CB1012000E0002010BD38B595
:10337000002000900024002500BF3120FFF7DBFF74
:1033800005460098401C00900098B0F5A06F01D051
:10339000002DF2D03120FFF7CEFF08B1012400E06C
:1033A0000024204638BD01460020A14A106820F0C4
:1033B000F80040EAC10010607047A04908607047FB
:1033C000024600209A4B586820F47C1042EA010320
:1033D0001843974B586070479849086670470146F4
:1033E0000020934A506820F0030008435060704763
:1033F0008F48406800F00C007047014600208C4A5E
:10340000506820F0F00008435060704701460020EB
:10341000874A506820F4E0600843506070470146D6
:103420000020834A506820F4605040EAC100506098
:10343000704729B17E4A527A02437D4B5A7204E0AA
:103440007B4A527A82437A4B5A7270477B49D83111
:103450000860704701460020754A506820F44040DB
:103460000843506070470021714A20321170704A41
:1034700082F82010012802D004280AD104E001219A
:103480006B4A2032117005E00521694A2032117023
:1034900000E000BF00BF7047694908607047644999
:1034A000096A0143624A11627047654944390860FC
:1034B000704730B500210022002400235C4D6D6868
:1034C00005F00C0121B1042905D0082923D105E01C
:1034D0005C4D056022E05B4D05601FE0544D6D685A
:1034E00005F47012524D6D6805F48034022505EB29
:1034F00092421CB9544D554305600BE04C4D6D682C
:1035000005F400351DB1504D5543056002E04D4DA9
:103510005543056002E04B4D056000BF00BF444DC0
:103520006D6805F0F0010909484D6B5C0568DD40E8
:1035300045603F4D6D6805F4E061090A434D6B5CE1
:103540004568DD4085603A4D6D6805F46051C90AF3
:103550003E4D6B5C4568DD40C560354D6D6805F4DA
:103560004041890B3A4D6B5CC568B5FBF3F50561CD
:1035700030BD29B12E4A526902432D4B5A6104E0F5
:103580002B4A526982432A4B5A61704729B1284A13
:1035900092690243264B9A6104E0254A926982436C
:1035A000234B9A61704729B1214AD2690243204BCB
:1035B000DA6104E01E4AD26982431D4BDA6170472A
:1035C00029B11B4AD2680243194BDA6004E0184A59
:1035D000D2688243164BDA60704729B1144A1269E7
:1035E0000243134B1A6104E0114A12698243104BE3
:1035F0001A61704712494039086070470F49C86422
:1036000070470B49C87170470948406A40F08070A4
:1036100007494862704701460020054A92680A40FF
:103620000AB1012000E0002070470149887270470C
:10363000001002400000FFF8FFFFF6FE00004242CB
:103640008004424200127A0000093D006000002020
:103650007000002010B50446FB48844209D10121C6
:103660008803FFF7ADFF00214FF48040FFF7A8FF6C
:1036700032E0F648844209D101214804FFF7ADFF4A
:1036800000214FF40030FFF7A8FF25E0F048844206
:1036900009D101218804FFF7A0FF00214FF4802009
:1036A000FFF79BFF18E0EB48844209D10121C804D1
:1036B000FFF793FF00214FF40020FFF78EFF0BE090
:1036C000E548844208D101210805FFF786FF002163
:1036D0004FF48010FFF781FF10BD2DE9F04786B051
:1036E00005460E460024A24600BFA1460027B08929
:1036F00000B100BF2F462C8A4CF6FF700440F088C2
:1037000004432C82AC894EF6F3100440B088318912
:103710000843718908430443AC81AC8A4FF6FF40EB
:103720000440B0890443AC8201A8FFF7C2FEC6483A
:10373000874202D1DDF810A001E0DDF80CA0A889D5
:1037400000F4004040B10AEBCA0000EB0A103168F7
:103750004900B0FBF1F807E00AEBCA0000EB0A10E1
:1037600031688900B0FBF1F86420B8FBF0F0040187
:103770002009642101FB1089A88900F4004040B1B0
:10378000322000EBC900B0FBF1F000F00700044369
:1037900008E0322000EB09106421B0FBF1F000F0EA
:1037A0000F0004432C8106B0BDE8F0874FF416519A
:1037B000016000218180C18001810C2141810021B3
:1037C0008181704710B502460020108A4FF2FF0336
:1037D00018400B884C8823438C882343CC88234390
:1037E0001843108210BD0021018041808180C1807A
:1037F000704721B1828942F40052828104E08289BB
:103800004DF6FF731A4082817047F0B503460024DD
:1038100000260025002040F66A17B94200D100BFFB
:103820001846C1F3421401F01F06012707FA06F5F6
:10383000012C01D10C3004E0022C01D1103000E049
:1038400014301AB107682F43076002E00768AF43DE
:103850000760F0BD1AB1838A0B43838202E0838A3A
:103860008B4383827047028A4FF6F0731A400282BC
:10387000028A0A430282704782894FF2FF731A401C
:10388000828182890A438281704721B1828942F014
:103890000202828104E082894FF6FD731A40828120
:1038A0007047028A4FF6DF731A400282028A0A4387
:1038B0000282704721B1028A42F48042028204E00F
:1038C000028A4BF6FF731A4002827047C1F3080266
:1038D0008280704701468888C0F30800704781895C
:1038E00041F0010181817047028BD2B20283028BC9
:1038F00042EA012202837047028B02F47F42028374
:10390000028B0A430283704721B1828A42F020026F
:10391000828204E0828A4FF6DF731A408282704707
:1039200021B1828A42F01002828204E0828A4FF63C
:10393000EF731A408282704721B1828A42F00802F6
:10394000828204E0828A4FF6F7731A4082827047BF
:1039500021B1828942F40042828103E08289C2F36C
:103960000E028281704721B1828A42F40062828213
:1039700004E0828A4FF2FF731A4082827047828A83
:103980004FF6FB731A408282828A0A438282704712
:1039900021B1828A42F00202828204E0828A4FF6DA
:1039A000FD731A408282704702460020B1F5007F05
:1039B00000D100BF13880B400BB1012000E00020B4
:1039C000704701F40072B2F5007F00D100BFCA4316
:1039D0000280704770B502460024002300250020B5
:1039E00040F66A16B14200D100BFC1F3421501F0A2
:1039F0001F03012606FA03F3012D02D196893340F5
:103A000006E0022D02D1168A334001E0968A334047
:103A10000C12012606FA04F41688344013B10CB1D6
:103A2000012000E0002070BD10B50022002340F608
:103A30006A14A14200D100BF0A1201249440A3B22B
:103A4000DC43048010BD0000003801400044004009
:103A500000480040004C0040005000402DE9FC416F
:103A6000054600E06D1C28782028FBD028780D281A
:103A7000F8D03AA1284600F0C1F804460CB9BDE8D8
:103A8000FC81204600F0F7F8C6B216B1012E00D036
:103A9000F5E732A1002000F0B1F8044604B9EEE7E2
:103AA00010220021204600F0ADF80746B7F5006F60
:103AB00000D3E4E74FF0000810E028A1002000F058
:103AC0009DF8044604B9DAE710220021204600F0F0
:103AD00099F8C0B20DF8080008F10108B8F1080F14
:103AE000EBDB012E06D169463846FDF7F3FD0120D8
:103AF000FCF72AFB00BFC2E7F8B505460E466A464A
:103B000017A1284600F05CF8044615E0204600F0B6
:103B10004FF8142806D26A4611A1002000F050F890
:103B2000044609E02046FFF799FF6A460CA10020F1
:103B300000F046F8044600BF002CE7D1F8BD10B5F0
:103B400008484088002807DD06484188001DFFF727
:103B5000D3FF00200349488010BD00002000000072
:103B60000D0A00007C00002040EA01039B0703D0FF
:103B700009E008C9121F08C0042AFAD203E011F8AC
:103B8000013B00F8013B521EF9D27047D2B201E06E
:103B900000F8012B491EFBD270470022F6E710B552
:103BA00013460A4604461946FFF7F0FF204610BDAB
:103BB000421C10F8011B0029FBD1801A704700003D
:103BC00070B500B91068002512E00B4602E0A6426D
:103BD00003D05B1C1C78002CF9D1E3B22B4305D039
:103BE0002CB125B1002100F8011B04E00546401C62
:103BF0000678002EE9D11060284670BD004ADFE744
:103C0000740000202DE9F05F93460F46804604467D
:103C1000002600F023FAD0F80090824614F8015BE9
:103C20002DB100F009F90068405DC007F6D12B2DD9
:103C300002D02D2D1AD0641E0021CAF800105A4659
:103C40003946204600F0FCF8014627B13868A0420A
:103C500001D1C7F80080DAF80000022809D0CAF8BC
:103C60000090700505D54842BDE8F09F46F4806697
:103C7000E2E70846F8E770B5064600F0EFF9046899
:103C800005460A220021304600F029F92C6070BD5B
:103C9000F0B480EA0102D40F4200B2EB410F02D22D
:103CA0000246084611464A0042D0C30DDDB2C1F3B8
:103CB000C752AD1A202D35DAC1F3160141F40002C6
:103CC00004B15242C5F1200602FA06F12A4110441D
:103CD000B3EBD05F23D0C4B1012DA0EBC35009DCFE
:103CE000F0BC4FF0004202EAC352DBB200F5000024
:103CF00000F036B9400000F1807000EBC350A0F135
:103D0000807040EAD170490009E0490841EAC07179
:103D1000A0EBC35000F50000400800EBC350F0BC1E
:103D200000F015B96142012202EB4101001BF6E7E8
:103D3000F0BC704781F00041AAE780F00040A7E79F
:103D400080EA010210B502F00043400022D04A0090
:103D50001FD0010E01EB1261C0F35600C2F35602F0
:103D600040F4000042F40002A0FB022000047F396E
:103D7000140400D0401C50EA124001D44000491EF7
:103D8000C2B20C0604EBD010401C4008802A02D0BE
:103D900003E0002010BD20F00100002900DA00201F
:103DA000184310BD96230022114600F0D9B820F028
:103DB0000040C10DC0F3160040F400007F2901DA75
:103DC00000207047962903DCC1F19601C840704776
:103DD0009639884070472DE9F05F054600209246ED
:103DE0009B4688460646814640241BE028464146BD
:103DF0004746224600F003F953465A46C01A9141FD
:103E000010D311461846224600F0EAF82D1A67EB47
:103E100001084F4622460120002100F0E1F817EB8F
:103E200000094E41201EA4F10104DFDC4846314662
:103E30002A464346BDE8F09F004870475C450008AD
:103E40002DE9F05F82460078002715468B460AF17F
:103E50000104B946302801D09DB113E014F8010BDC
:103E60000127782803D0582801D045B10AE00DB1C8
:103E7000102D07D10027102514F8010B02E00825AA
:103E800000E00A250026B0460EE005FB080005FB11
:103E900006F1012701EB10461FFA80F8B6F5803FC6
:103EA00000D3B94614F8010B294600F0B8F80028F1
:103EB000EBDABBF1000F05D00FB1641E00E05446F1
:103EC000CBF80040B9F1000F06D000F0C7F802218E
:103ED0000160C81EBDE8F09F48EA0640FAE72DE9F8
:103EE000F04791460F4680460446002614F8015BD1
:103EF0002DB1FFF7A1FF0068405DC007F6D12B2D63
:103F000002D02D2D18D0641E4A4639462046FFF7B0
:103F100097FF27B13968A14201D1C7F80080710528
:103F20004FF002040BD54042002803DD00F096F864
:103F30000460A007BDE8F08746F48066E4E7002847
:103F4000F8DA00F08BF804606FF00040F2E7002927
:103F5000A8BF7047401C490008BF20F0010070470F
:103F600010B4B0FA80FC00FA0CF050EA010404BF6F
:103F700010BC704749B1CCF1200421FA04F411FAC5
:103F80000CF118BF012121430843A3EB0C01CB1D09
:103F90004FEA00614FEA102042BF002010BC70477A
:103FA00000EBC35010440029A4BF10BC7047401C54
:103FB000490008BF20F0010010BC7047064C074DB7
:103FC00006E0E06840F0010394E8070098471034E9
:103FD000AC42F6D3FCF7B0F8604500088045000815
:103FE000202A04DB203A00FA02F1002070479140B9
:103FF000C2F1200320FA03F3194390407047202AAE
:1040000004DB203A21FA02F00021704721FA02F382
:10401000D040C2F1200291400843194670473A2827
:1040200000D2303820F02002412A01D3A2F137001B
:10403000884201D34FF0FF30704700000FB4054BAA
:1040400010B503A9044A029800F01CF810BC5DF8F2
:1040500014FB0000471500081800002000487047B6
:104060007800002002E008C8121F08C1002AFAD117
:1040700070477047002001E001C1121F002AFBD1E8
:10408000704700002DE9FF4F8DB00F460546002612
:1040900006E025280BD0DDE90F1290476D1C761C39
:1040A00028780028F5D111B03046BDE8F08F002403
:1040B000A246A1460122E94900E0044315F8013F68
:1040C000203B02FA03F00842F7D128782A2810D0C2
:1040D0006FF02F022878A0F13001092914D80AEBDB
:1040E0008A0102EB410144F0020400EB010A6D1C5D
:1040F000F0E701CF5FEA000A03D544F40054CAF1A7
:10410000000A44F002046D1C28782E2817D115F8F7
:10411000010F44F004042A280ED06FF02F022878F3
:10412000A0F1300109290AD809EB890102EB41010C
:1041300000EB01096D1CF2E757F8049B6D1C287811
:104140006C280FD006DC4C2817D068280DD06A28C0
:1041500014D104E0742810D07A280FD10DE044F473
:1041600000140AE044F4801401E044F44014697837
:10417000814202D104F580146D1C6D1C28786E28D4
:104180001ED00CDC632830D004DC00288BD05828EB
:1041900011D19FE0642867D069280CD164E07328AE
:1041A0002DD004DC6F2872D0702804D194E07528DB
:1041B0006ED078286DD0DDE90F129047761C4BE168
:1041C000C4F30250022806D0032809D0042801CFE6
:1041D00009D0066040E101CFF117C0E900613BE181
:1041E00001CF068038E1067036E117F8040B8DF830
:1041F000000000208DF80100EB46012003E057F895
:1042000004BB4FF0FF3061074FF0000102D40DE016
:1042100008F10101884649450FDA8045F8DB1BF8B3
:1042200008100029F4D108E008F101018846814214
:10423000FADB1BF808100029F6D1DDE90F23AAEB01
:1042400008008146214600F031F9304400EB0806B1
:1042500004E0DDE90F121BF8010B9047B8F10108EB
:10426000F7D221464846F2E00A21C4F302524FF049
:10427000000B0891022A04D001CFC117032A09D0EC
:104280000AE0FF1D27F00707F7E8020108E02CE02D
:104290001EE01FE000B2C117042A01D140B2C117CD
:1042A000021E71F1000206DA0023D0EB030063EB7B
:1042B00001012D2202E0220504D52B228DF82420B5
:1042C000012203E0E20701D02022F7E7904653E005
:1042D0000A210BE0102109E010214FF0000B44F0FF
:1042E00004044FF00809089103E008214FF0000B87
:1042F0000891C4F30252022A04D001CF0021032AFC
:1043000006D006E0FF1D27F00707F7E8020103E0EB
:1043100080B2042A00D1C0B24FF0000822072BD58A
:104320002A78702A07D0DDF820C08CF0100C5CEAE7
:104330000B0C05D00EE040228DF82420012208E06D
:1043400050EA010306D030238DF824308DF8252063
:1043500002229046089B83F0080353EA0B030BD11B
:1043600050EA010201D1620706D530228DF82420DF
:104370004FF00108A9F101092A78582A04D038A27F
:104380000B9208AA0A920BE03AA2F9E75B46089A58
:10439000FFF721FD0B9B9B5C0A9A521E0A92137039
:1043A00050EA0102F2D10A98ADEB000000F1200BB7
:1043B000600702D524F4803401E04FF00109D945AB
:1043C00002DDA9EB0B0000E0002000EB0B014144F3
:1043D0000890AAEB010AE00306D4DDE90F23214689
:1043E000504600F063F806444FF0000908E009A9C0
:1043F00011F80900DDE90F12904709F10109761C57
:10440000C145F4DBE0030CD5DDE90F23214650461E
:1044100000F04CF8064404E0DDE90F12302090472C
:10442000761C0899481E08900029F5DC08E00A98D7
:104430000A990078491C0A91DDE90F129047761C11
:10444000BBF10001ABF1010BF1DC21465046DDE987
:104450000F2300F019F806446D1C21E6092801001D
:1044600030313233343536373839616263646566EA
:1044700000000000303132333435363738394142AC
:1044800043444546000000002DE9F0410446002564
:104490001E461746880404D405E039462020B0475C
:1044A0006D1C641EF9D52846BDE8F0812DE9F04168
:1044B000044600251E469046C80301D5302700E07B
:1044C0002027880404D505E041463846B0476D1CD6
:1044D000641EF9D52846BDE8F081004040404040C8
:1044E00040404040414141414140404040404040C7
:1044F00040404040404040404040400502020202EF
:1045000002020202020202020202022020202020F5
:1045100020202020200202020202020290909090AD
:10452000909010101010101010101010101010108B
:1045300010101010101002020202020288888888EF
:1045400088880808080808080808080808080808EB
:10455000080808080808020202024000DB440008BC
:1045600080450008000000207C0000006440000836
:10457000FC4500087C000020841D000074400008F9
:10458000000000010000000000000000000000002A
:10459000000000000000000000000000000000001B
:1045A000000000000000000000000000000000000B
:1045B00000000000000000000000000000000000FB
:1045C00000000000000000000000000000000000EB
:1045D000000000000102030406070809A25D4F0065
:1045E0000000000001020304010203040607080999
:0C45F000020406080000000000000000AB
:0400000508000131BD
:00000001FF
