:020000040800F2
:1000000008220020D9080008916A0008936A0008B5
:10001000976A00089B6A00089F6A000800000000B9
:10002000000000000000000000000000A36A0008BB
:10003000A56A000800000000A76A000891010008F6
:10004000F3080008F3080008F3080008F3080008A4
:10005000F3080008F3080008AB390008C3390008AA
:10006000F3080008F3080008DB390008F30800086B
:10007000F3080008F3080008F3080008F308000874
:10008000F3080008F3080008F3080008F308000864
:1000900053370008F3080008F3080008F3080008C5
:1000A000F3080008F3080008F3080008F308000844
:1000B000B34C0008F3080008F3080008F308000830
:1000C000F3080008F3080008F3080008F308000824
:1000D000F3080008133F0008A7420008DF440008A7
:1000E000F3080008F3080008F3080008F308000804
:1000F000F3080008F3080008F3080008F3080008F4
:10010000F3080008F3080008F3080008F3080008E3
:10011000C9470008774A0008F3080008F3080008F8
:10012000F3080008F3080008F3080008F3080008C3
:10013000DFF80CD007F032F900480047156A0008D4
:100140000822002010B5FE48FE49086000F051FC6E
:10015000FC4800684FF47A71B0FBF1F4601E4FF078
:10016000E02148610020886108610846006940F08C
:10017000040008610846006940F002000861084672
:10018000006940F001000861EFA007F031F910BDEF
:10019000F648D0E900305A1C40F10000F349C1E9AB
:1001A00000207047F14903C970472DE9F04700BFAF
:1001B000FFF7F8FF04464FF0E02040694FF0E021E0
:1001C0008969401A4FF47A7148434FF0E021496938
:1001D000B0FBF1F9484606F0B4FE0746204606F0AB
:1001E000B0FE8146E24906F0E9FC8046394606F059
:1001F0008DFC064606F0C8FE0546FFF7D3FF6040BB
:100200000843D5D12846BDE8F08730B50246FFF750
:10021000C9FFD84B03C300BFFFF7C4FFD54BD3E9D9
:100220000053044608461946631B60EB01009B1A05
:1002300070F10000F0D330BD70B50446FFF7B5FF94
:100240000026054600BFFFF7B0FF0021421B61EB0F
:100250000601121B71F10001F5D370BD10B5C6483F
:100260000068C6490860FFF7A0FFC3490860C3489B
:10027000006828B108460068C0490968401A10BDE6
:100280000020FCE710B5FFF7E9FF044654B9BCA015
:1002900007F0AEF8C1480078401CC0490870FFF76D
:1002A000DDFF10BDBD4801780078401CBB4B1870C5
:1002B0002246BBA007F09CF8FFF7D0FF00BFF0E795
:1002C0002DE9F041144600250026BD4A904205D193
:1002D000BC4A926942F00402BA4FBA61BA4A9042EB
:1002E00005D1B84A926942F00802B64FBA61B74ADE
:1002F000904205D1B34A926942F01002B14FBA61FF
:10030000B34A904205D1AF4A926942F02002AD4F04
:10031000BA61B04A904205D1AA4A926942F04002BD
:10032000A84FBA6103F0030303B90323182C1FD0AD
:1003300007DC6CB1042C0DD0102C14D0142C1AD165
:100340000EE01C2C11D0282C06D0482C13D105E02F
:10035000002512E0042510E008250EE008250CE039
:1003600043F0040509E01D4607E043F00C0504E0F6
:1003700043F0080501E0002500BF00BF002218E09F
:10038000012707FA02F601EA06078FB107684FEA6C
:1003900082084FF00F0C0CFA08FC27EA0C070760E4
:1003A00007684FEA820C05FA0CFC47EA0C07076065
:1003B000521C082AE4D300221BE002F108074FF088
:1003C000010C0CFA07F601EA06078FB147684FEAFD
:1003D00082084FF00F0C0CFA08FC27EA0C07476064
:1003E00047684FEA820C05FA0CFC47EA0C074760A5
:1003F000521C082AE1D3482C02D102690A43026147
:10040000282C03D1026942EA01420261BDE8F08171
:1004100070B50B467049097829B97049704A116066
:1004200001216D4A11706F49095C21F0F0026D499C
:100430000A5419070A0E6B490A54C41700EBD46416
:100440006411A40004F1E024D4F800410246C51769
:1004500000EBD5656D11A0EB45160125B5402C4389
:100460000146C51700EBD5656D11AD0005F1E0251E
:10047000C5F8004170BD2DE9F04103461446002641
:1004800000204F4A934200D100BF4F4A934200D10F
:1004900001264E4A934200D102264D4A934200D192
:1004A00003264C4A934200D104264F4A934200D17E
:1004B00005264E4A934200D10626002207E0012776
:1004C00097408F4201D1104603E0571CFAB2102A20
:1004D000F5DB00BF0246C71700EB9777BF10A0EB14
:1004E0008707BF063D0E374A926942F00102354F39
:1004F000BA61C71700EB97774FEAA70C3C4F57F844
:100500002C704FF00F0C0CFA05FC27EA0C07024682
:100510004FEAE07C00EB9C7C4FEAAC08DFF8D0C0EF
:100520004CF82870C71700EB97774FEAA70C304FAD
:1005300057F82C7006FA05FC47EA0C075AE0000051
:10054000A25D4F002C0000205379735469636BCA7D
:10055000B1D6D3C5E4D6C320202020202020316D81
:1005600073D6D0B6CF31B4CE0D000000000000200D
:1005700000007A4408000020140000201000002031
:10058000A1BED4CBD0D0CAB1B3A42DB2E2CAD4D4C8
:10059000ADB5E3B7C5D6C3A1BF0D0000180000205C
:1005A000A1BED4CBD0D0CAB1B3A42DBCE0B2ECB5BF
:1005B000E32D25643A253975207573A1BF0D000020
:1005C0000008014000100240000C014000100140F2
:1005D0000014014000180140190000200003FA0532
:1005E0000CED00E000E400E0001C014000200140B0
:1005F000080001404FEAE07C00EB9C7C4FEAAC082D
:10060000DFF8A0C24CF82870A74A12680A43A64F28
:100610003A6004F0010232B1A34A0C3212680A4374
:10062000A14F0C373A6004F0020232B19E4A083200
:1006300012680A439C4F08373A60BDE8F0819B4836
:10064000806940F0010099498861964808384068FF
:1006500020F0E0609349083948600846406840F05F
:1006600000704860704710B500F0C3F9904800680A
:1006700010BD904890490860704730BF704772B60F
:10068000704762B6704700B58B48001D006840F0A7
:1006900004008949091D08608448C06940F0805001
:1006A0008249C8618548406840F480708349486049
:1006B0000846006840F0040008600846006840F002
:1006C00002000860FFF7D9FF00BD7849496821F0B2
:1006D0007061764A51601146496800F00F0241EAA4
:1006E0000261724A51607047014600BF7448C06899
:1006F00000F0010018B1081EA1F10101F6D109B9FD
:10070000012070470020FCE730B503466D4804889F
:10071000B3F1006F01D2012030BD4FF0006000EB5B
:100720008420984201D20220F6E703E0187808708E
:10073000491C5B1C101EA2F10105AAB2F6D100BF34
:10074000EAE72DE9F84F8046894616465D48B0F83D
:1007500000A0A8F1006B4FEADB25CBF30A00009064
:100760000098C0F50067B8F1006F02D20120BDE823
:10077000F88F4FF0006000EB8A20404501D2012045
:10078000F5E751484E49486050484860BE4200DC99
:1007900037467DE04E48FFF7A7FF08B10220E6E7A5
:1007A0004FF0006101EBC5200A144A49FFF7ACFF86
:1007B0004748FFF799FF08B10220D8E74048006991
:1007C00040F002003E4908614FF0006000EBC52098
:1007D00048610846006940F0400008613C48FFF766
:1007E00083FF08B10220C2E73548006941F6FD7178
:1007F000084033490861002007E019F800200099FB
:100800000144344B5A54411C88B2B842F5DB0024F1
:100810002AE02F48FFF768FF08B10220A7E7284821
:10082000006940F00100264908612A4810F81400C8
:10083000012101EB4401274A515C40EA01204FF0BD
:10084000006101EBC52121F814002148FFF74CFF9E
:1008500008B102208BE71A48006941F6FE71084092
:1008600017490861601C84B2B4F5806FD1DBB742D0
:1008700000D10EE0B9446D1C00200090F01B86B240
:10088000B6F5006F02DD4FF4006000E03046074629
:1008900080E700BF0A48006940F08000084908610D
:1008A000002064E7080001400004014000100240FD
:1008B0002C0000200400FA050CED00E00070004060
:1008C00000200240E0F7FF1F23016745AB89EFCD11
:1008D00088888800C60000200648804706480047F0
:1008E000FEE7FEE7FEE7FEE7FEE7FEE7FEE7FEE7E0
:1008F000FEE7FEE7FD080008310100080CB560487E
:10090000006840F001005E490860084640685D49A3
:1009100008405B4948600846406820F4FE00486093
:100920004FF41F0088600020019000900846006886
:1009300040F48030086000BF5148006800F4003087
:1009400000900198401C0190009818B90198B0F5EA
:10095000A06FF1D14A48006800F40030002843D06D
:100960004948006840F010004749086008460068A0
:1009700020F0030008600846006840F002000860AC
:100980003F4840683E49486008464068486008461D
:10099000406840F4806048600846406820F47C105D
:1009A00048600846406840F4E8104860084600681F
:1009B00040F08070086000BF3148006800F00070AF
:1009C0000028F9D02E48406820F003002C494860E8
:1009D0000846406840F00200486000BF2848406870
:1009E00000F00C000828F9D14FF00060274908609A
:1009F0000CBD10B5002100200022214B5B6803F0E4
:100A00000C0121B1042906D0082928D107E0204B88
:100A1000204C236027E01E4B1E4C236023E0184B24
:100A20005B6803F47010164B5B6803F4803202239A
:100A300003EB904022B9184B4343164C23600DE062
:100A40000F4B5B6803F4003323B1134B4343114C4A
:100A5000236003E00E4B43430E4C236003E00C4B3A
:100A60000C4C236000BF00BF054B5B68C3F303134E
:100A70000A4CE15C074B1B68CB40064C236010BD61
:100A8000001002400000FFF80020024008ED00E0E6
:100A900000127A002C00002000093D001C000020FC
:100AA00031490143314A1160704770B5002100237C
:100AB0000F22C47804B32D4C246804F4E064C4F518
:100AC000E064210AC1F10403CA40447804FA03F146
:100AD0008478144021430901254C0678A1550478F7
:100AE00004F01F050124AC4005786D11AD0005F13F
:100AF000E025C5F8004109E0047804F01F05012451
:100B0000AC401C4D0678761145F8264070BD1A4A57
:100B10000A400243154B1B1F1A60704739B1134A34
:100B2000121D12680243114B1B1D1A6006E00F4A8A
:100B3000121D126882430D4B1B1D1A60704704285A
:100B400008D14FF0E021096941F004014FF0E022A3
:100B5000116107E04FF0E021096921F004014FF035
:100B6000E0221161704700000000FA050CED00E082
:100B700000E400E080E100E080FFFF1F10B50446C4
:100B8000FA48844208D10121401501F005FC0021FA
:100B9000601501F001FC17E0F548844208D10121FD
:100BA000001501F0F9FB0021201501F0F5FB0BE029
:100BB000F048844208D10121C80301F0EDFB002177
:100BC0004FF4004001F0E8FB10BD30B502460020B4
:100BD00000235068E84C20400D790C6844EA052455
:100BE000204350609068E54C2040D1E902542C43EA
:100BF0004D7944EA450420439060D06A20F47000A7
:100C00000C7C641EE4B2234340EA0350D06230BD42
:100C100000210160017141718160C1600121017495
:100C2000704721B1826842F00102826003E082686D
:100C300022F001028260704721B1826842F4807222
:100C4000826003E0826822F480728260704710B58F
:100C50000023CBB21AB144681C43446002E04468EC
:100C60009C43446010BD816841F008018160704779
:100C7000014600208A6802F008020AB1012000E063
:100C800000207047816841F004018160704701468F
:100C900000208A6802F004020AB1012000E000206E
:100CA000704721B1826842F4A002826003E082684A
:100CB00022F4A00282607047014600208A6802F494
:100CC00080020AB1012000E00020704710B50A46FA
:100CD00000210023416821F46041531E41EA433161
:100CE000416010BD21B1426842F40062426003E0FD
:100CF000426822F4006242607047F0B504460D4637
:100D000000200021092D11DDE068A5F10A0606EB9F
:100D10004607072606FA07F18843A5F10A0606EBFF
:100D2000460603FA06F10843E0600CE0206905EB93
:100D30004507072606FA07F1884305EB450603FA3F
:100D400006F108432061072A0FDA606B561E06EB96
:100D500086071F2606FA07F18843561E06EB86060D
:100D600005FA06F10843606322E00D2A0FDA206BD2
:100D7000D61F06EB86071F2606FA07F18843D61F03
:100D800006EB860605FA06F10843206310E0E06AE8
:100D9000A2F10D0606EB86071F2606FA07F1884327
:100DA000A2F10D0606EB860605FA06F10843E0629D
:100DB000F0BD21B1826842F48012826003E0826853
:100DC00022F48012826070470146C86C80B270477E
:100DD00066484C300068704721B1426842F4806236
:100DE000426003E0426822F480624260704721B1B1
:100DF000426842F48052426003E0426822F480522A
:100E0000426070470A460021816821F4E0411143A5
:100E10008160704721B1826842F40042826003E041
:100E2000826822F400428260704721B1826842F4F5
:100E30000212826003E0826822F40212826070472C
:100E4000014600208A6802F400120AB1012000E085
:100E500000207047F0B50446154600200022002609
:100E6000092911DDE068A1F10A0707EB470C072704
:100E700007FA0CF29043A1F10A0707EB470703FAC0
:100E800007F21043E0600CE0206901EB410C0727FA
:100E900007FA0CF2904301EB410703FA07F2104303
:100EA0002061A06BC0F30156EF1C06F1010CA7EB0B
:100EB0000C0707EB870C1F2707FA0CF29043EF1C77
:100EC00006F1010CA7EB0C0707EB870701FA07F205
:100ED0001043A063F0BD10B50A4600210023816BCA
:100EE00021F44011531E41EA0351816310BD08B53E
:100EF000002300930090009B0B440093009B1A601A
:100F000008BD08B5024600200090009201F12800BB
:100F1000009B184400900098006880B208BD0A4603
:100F200000214168164B19401143416070474162EE
:100F3000826270470A460021416821F01F01114377
:100F40004160704740B109490831096841F4000126
:100F5000064A0832116007E004490831096821F4A3
:100F60000001024A0832116070470000002401406D
:100F700000280140003C0140FFFEF0FFFDF7F1FFBB
:100F8000FFFD3FFF0246002013680B400BB101201C
:100F900000E000207047CA430260704770B5024607
:100FA0000020002300240B125568CEB205EA060487
:100FB00015681D4015B10CB1012000E0002070BD86
:100FC00000220A12D34303607047000010B50446A4
:100FD000FE48844209D10121480601F0EAF90021C6
:100FE0004FF0007001F0E5F908E00121880601F0FA
:100FF000E0F900214FF0806001F0DBF910BD30B561
:10100000024600200023146824F0020414601468CF
:1010100044F00104146000E05B1C546804F0010417
:101020001CB94FF6FF74A342F6D1546804F00104D2
:101030000CB900206CE08C79012C04D1146844F0C8
:101040008004146003E0146824F080041460CC79F8
:10105000012C04D1146844F04004146003E01468C7
:1010600024F0400414600C7A012C04D1146844F07C
:101070002004146003E0146824F0200414604C7A07
:10108000012C04D1146844F01004146003E01468C7
:1010900024F0100414608C7A012C04D1146844F0FC
:1010A0000804146003E0146824F008041460CC7A87
:1010B000012C04D1146844F00404146003E01468A3
:1010C00024F0040414608C78A407CD7844EA056405
:1010D0000D7944EA05444D7944EA05540D886D1EA6
:1010E0002C43D461146824F001041460002300E050
:1010F0005B1C546804F001041CB14FF6FF74A3425A
:10110000F6D1546804F001040CB1002000E0012085
:1011100030BD10B50021837A012202FA03F1AC4AF6
:10112000126842F00102AA4B1A60A94A1C321268E6
:101130008A43A74B1C331A60027BCAB9A44A0C32FB
:1011400012688A43A24B0C331A604288C38842EA71
:1011500003439F4A4032847A42F8343002888388BD
:1011600042EA03439A4A4032847A02EBC402536053
:10117000027B012A19D1964A0C3212680A43944B19
:101180000C331A604288038842EA0343904A403293
:10119000847A42F83430C288838842EA03438C4A16
:1011A0004032847A02EBC4025360C27A3AB9884A68
:1011B000121D12688A43864B1B1D1A6006E0844A82
:1011C000121D12680A43824B1B1D1A60028932B934
:1011D0007F4A143212688A437D4B14331A600289A5
:1011E000012A06D17A4A143212680A43784B143322
:1011F0001A60427B012A06D1754A1C3212680A43E2
:10120000734B1C331A60724A126822F00102704B51
:101210001A6010BD00218171C17101724172817229
:10122000C1728170C17003210171022141710121DC
:10123000018070476649096841F00101644A116004
:101240001146096843F60E729143614A11601146D6
:10125000096841EA002111601146096821F0010185
:101260001160704721B1026842F48032026003E0ED
:10127000026822F4803202607047E1B1026842F0F5
:10128000800202604FF4C272125842F480734FF42D
:10129000C27213504FF4CA72125842F480734FF462
:1012A000CA7213504FF4D272125842F480734FF442
:1012B000D27213501BE0026822F0800202604FF4E9
:1012C000C272125822F480734FF4C27213504FF45A
:1012D000CA72125822F480734FF4CA7213504FF43A
:1012E000D272125822F480734FF4D27213507047A6
:1012F00010B502460020936803F08063B3F1806F5D
:1013000000D110E0936803F00063B3F1006F01D1E6
:10131000012008E0936803F08053B3F1805F01D1AE
:10132000022000E00420042879D002F5C07303EB0A
:1013300000131B6803F0010402F5C07303EB0013F4
:101340001C600B7A7BB94B7A0C8843EA445302F554
:10135000C07404EB00142468234302F5C07404EB4A
:101360000014236010E00B7A4C6843EAC4034C7A03
:10137000234302F5C07404EB00142468234302F5F0
:10138000C07404EB001423608B7A03F00F038B729C
:1013900002F5C07303EB00135B6823F00F0402F542
:1013A000C07303EB00135C6002F5C07303EB001322
:1013B0005B688C7A234302F5C07404EB001463600D
:1013C0008B7B1C064B7B44EA034403E00064004033
:1013D000006600400B7B44EA0323CC7A234302F5EA
:1013E000C07404EB0014A3608B7C1C064B7C44EAA5
:1013F00003440B7C44EA0323CC7B234302F5C074F3
:1014000004EB0014E36002F5C07303EB00131B68E8
:1014100043F0010402F5C07303EB00131C6010BD20
:1014200010B50246002321B1012907D002290FD1AE
:1014300009E09068F94C00EA04030BE09068F84C6E
:1014400000EA040306E09068F64C00EA040301E0B9
:10145000002300BF00BFF44C181BA34216D007DCCA
:1014600083B16FF08060184470B1022818D111E088
:10147000B0F5007F10D0ED4C204448B1B0F5003FEE
:101480000ED10BE002230DE000230BE0002309E066
:10149000002307E0012305E0012303E0012301E02D
:1014A000002300BF00BFD8B210BD21B1012907D071
:1014B00002290FD109E0826842F0800282600AE0CE
:1014C000826842F40042826005E0826842F40002D1
:1014D000826000E000BF00BF704710B500F5D87310
:1014E00003EB01131B6803F004031372137A53B95F
:1014F00000F5D87303EB01131B6840F2FF7404EA94
:101500005353136009E000F5D87303EB01131B6814
:101510006FF0604404EAD303536000F5D87303EB23
:1015200001131B6803F00203537200F5D87303EB39
:1015300001135B6803F00F03937200F5D87303EB9C
:1015400001135B681B0AD37400F5D87303EB011316
:101550009B68D37200F5D87303EB01139B681C0AD8
:10156000147300F5D87303EB01139B681C0C5473C0
:1015700000F5D87303EB01139B681B0E937300F502
:10158000D87303EB0113DB68D37300F5D87303EB57
:101590000113DB681C0A147400F5D87303EB011304
:1015A000DB681C0C547400F5D87303EB0113DB6883
:1015B0001B0E937421B9C36843F02003C36003E09A
:1015C000036943F02003036110BD21B9C26842F0F2
:1015D0002002C26003E0026942F02002026170470B
:1015E0000246002019B9D36803F0030006E0012980
:1015F00003D1136903F0030000E00020704710B529
:1016000002460B4600204FF6FF71BBB9146824F068
:10161000020444F00104146000E0491E546804F020
:101620000304012C01D00029F7D1546804F003040D
:10163000012C01D0002032E0012030E0012B13D139
:10164000146824F00304146000E0491E546804F098
:1016500003040CB10029F8D1546804F003040CB160
:1016600000201CE001201AE0022B17D1146824F09E
:10167000010444F00204146000E0491E546804F0C0
:101680000304022C01D00029F7D1546804F00304AC
:10169000022C01D0002002E0012000E0002010BD5B
:1016A000014600200A6822F0010242F002020A60AC
:1016B0004A6802F00302022A00D101207047014665
:1016C0004FF6FF7200200B6823F002030B6000E06E
:1016D000521E4B6803F00203022B01D1002AF7D1FE
:1016E0004B6803F00203022B00D001207047014633
:1016F00000208A6902F070007047014600208A6964
:10170000100E7047014600208A69C2F307407047F7
:101710001AB143690B43436102E043698B43436160
:10172000704710B50246002001F4700343B193697D
:10173000C1F3130423400BB101202DE000202BE066
:1017400001F0807343B15368C1F3130423400BB11C
:10175000012021E000201FE001F0006343B1936805
:10176000C1F3130423400BB1012015E0002013E066
:1017700001F0007343B1D368C1F3130423400BB1EC
:10178000012009E0002007E01369C1F3130423409E
:101790000BB1012000E0002010BD0022244B994233
:1017A00002D10023836111E0C1F3130201F0007341
:1017B0000BB1C2600AE001F080630BB1026105E089
:1017C00001F000630BB1826000E0426070470246A6
:1017D000002002EA01030BB1012000E00020704765
:1017E00070B504460D46002660692840002872D076
:1017F000B5F5807F69D01DDC082D42D006DC012DB7
:101800002DD0022D31D0042D7FD134E0102D3ED0CB
:10181000202D42D0402D78D145E000000300000487
:101820000003000800000310000100080001FFF79A
:101830007000F030B5F5004F61D009DCB5F5007FE0
:101840004AD0B5F5806F4DD0B5F5006F5DD150E051
:10185000B5F5803F2DD0B5F5003F56D12FE0A068FB
:101860005549FFF7B4FF064651E0E0680321FFF752
:10187000AEFF06464BE0E0680821FFF7A8FF0646EA
:1018800045E0E0681021FFF7A2FF06463FE020692F
:101890000321FFF79CFF064639E020690821FFF786
:1018A00096FF064633E020691021FFF790FF0646B9
:1018B0002DE060680821FFF78AFF064627E0606890
:1018C0001021FFF784FF064621E0A0690121FFF700
:1018D0007EFF06461BE01BE0A0690221FFF777FFB1
:1018E000064614E0A0690421FFF771FF06460EE0EA
:1018F0000BE0A0697021FFF76AFF064607E0606809
:101900000421FFF764FF064601E0002600BF00E067
:101910000026304670BDB1F5007F3AD00FDC20299B
:1019200028D006DC01291CD004291DD0082940D16B
:101930001DE0402921D0B1F5807F3AD126E0B1F5F4
:10194000004F31D006DCB1F5806F25D0B1F5006FC6
:101950002FD124E0B1F5803F12D0B1F5003F28D15E
:1019600011E0154A826025E00822C26022E01022C0
:10197000C2601FE0082202611CE01022026119E02F
:101980000822426016E01022426013E00422426006
:1019900010E0042242600DE0042242600AE00022CE
:1019A00082610422426005E00022826104224260DA
:1019B00000E000BF00BF70470101010001684FF661
:1019C000FE72114001600021016041608160C160D0
:1019D0008D49884208D18C490839496841F00F0186
:1019E000894A083A51608AE087491431884208D10F
:1019F00085490839496841F0F001834A083A516045
:101A00007DE081492831884208D17F4908394968F9
:101A100041F470617C4A083A516070E07A493C3187
:101A2000884208D178490839496841F47041764ABA
:101A3000083A516063E074495031884208D17249D4
:101A40000839496841F470216F4A083A516056E0FC
:101A50006D496431884208D16B490839496841F4BD
:101A60007001694A083A516049E067497831884213
:101A700008D165490839496841F07061624A083AFD
:101A800051603CE06149884206D1011F096841F07C
:101A90000F01021F116032E05C491431884208D105
:101AA0005A49091F096841F0F001584A121F116094
:101AB00025E056492831884208D15449091F096850
:101AC00041F47061514A121F116018E04F493C31D6
:101AD000884208D14D49091F096841F470414B4AB9
:101AE000121F11600BE049495031884207D1474924
:101AF000091F096841F47021444A121F11607047A0
:101B000010B50022026847F6F0739A430C6A8B689E
:101B100023430C6923434C6923438C692343CC69D9
:101B200023434C6A23438C6A23431A430260CB68E5
:101B300043600B6883604B68C36010BD0021016087
:101B400041608160C160016141618161C161016287
:101B500041628162704721B1026842F00102026075
:101B600004E002684FF6FE731A40026070471AB133
:101B700003680B43036002E003688B430360704714
:101B8000416070470146486880B2704701460020B6
:101B9000002201F080531BB11C4B083B1A6802E085
:101BA000194B083B1A6802EA01030BB1012000E05F
:101BB0000020704700F0805119B11449091F0860D6
:101BC00002E01149083948607047014600200022B0
:101BD00001F080531BB10D4B083B1A6802E00A4B21
:101BE000083B1A6802EA01030BB1012000E0002063
:101BF000704700F0805119B10449091F086002E0E4
:101C00000149083948607047080002400804024052
:101C1000002044490860091D0860091D0860091D6D
:101C2000086041483F4914310860704700213D4930
:101C30008279002A3AD00A46126803689A430B4612
:101C40001A600A1D126803689A430B1D1A60027914
:101C500011440A6803681A430A60324A083212685B
:101C600003689A432F4B08331A601A1D12680368E1
:101C70009A432C4B0C331A604279102A0ED11A1F4A
:101C8000126803681A43274B08331A601A1D12683A
:101C900003681A43234B0C331A600DE02149427943
:101CA00011440A6803681A430A6005E00279114486
:101CB0000A6803689A430A60704700210160017155
:101CC0000C2141710021817170471649103109685A
:101CD0000143144A10321160704701460020114A36
:101CE000143212680A400AB1012000E00020704757
:101CF0000C49143108607047014600200022094B4E
:101D00001B6803EA0102074B14331B680B4013B135
:101D10000AB1012000E00020704702491431086038
:101D20007047000000040140FFFF0F0010B504469B
:101D3000CC48844208D10121042000F02DFB002171
:101D4000042000F029FB46E0C748844208D1012165
:101D5000082000F021FB0021082000F01DFB3AE0E4
:101D6000C248844208D10121102000F015FB002157
:101D7000102000F011FB2EE0BD48844208D1012163
:101D8000202000F009FB0021202000F005FB22E0CC
:101D9000B848844208D10121402000F0FDFA00211A
:101DA000402000F0F9FA16E0B348844208D101213E
:101DB000802000F0F1FA0021802000F0EDFA0AE026
:101DC000AE48844207D10121801500F0E5FA0021D8
:101DD000A01500F0E1FA10BD10B50121084600F091
:101DE000DBFA0021012000F0D7FA10BD2DE9F04107
:101DF000024600250026002000230024002791F839
:101E000003C00CF00F0591F803C00CF0100CBCF1EE
:101E1000000F03D091F802C04CEA050591F800C00C
:101E2000BCF1000F31D0146800202BE04FF0010C02
:101E30000CFA00F3B1F800C00CEA03069E4220D170
:101E400083004FF00F0C0CFA03F7BC4305FA03FCB8
:101E50004CEA040491F803C0BCF1280F06D14FF0FE
:101E6000010C0CFA00FCC2F814C00AE091F803C09F
:101E7000BCF1480F05D14FF0010C0CFA00FCC2F880
:101E800010C0401C0828D1D31460B1F800C0BCF1C8
:101E9000FF0F34DD546800202EE000F1080C4FF0F5
:101EA000010808FA0CF3B1F800C00CEA03069E42E0
:101EB00021D183004FF00F0C0CFA03F7BC4305FA55
:101EC00003FC4CEA040491F803C0BCF1280F05D1CF
:101ED00000F1080C08FA0CF8C2F8148091F803C05D
:101EE000BCF1480F07D100F1080C4FF0010808FAC7
:101EF0000CF8C2F81080401C0828CED35460BDE80E
:101F0000F0814FF6FF710180022181700421C170C0
:101F100070470246002093680B400BB1012000E09F
:101F2000002070470146886880B270470246002052
:101F3000D3680B400BB1012000E000207047014640
:101F4000C86880B2704701617047416170470AB14B
:101F5000016100E041617047C16070474FF4803219
:101F60000A438261816182618269826970470246A7
:101F70000020434B18684FF68073184040EA021067
:101F800008433F4B186070473E49C8617047F0B541
:101F90000A46002300240021002500F00046B6F187
:101FA000004F02D1364EF16901E0354E7168C0F341
:101FB000034583B200F44016B6F5401F08D121F066
:101FC00070612F4E766826F070662D4F7E6012E0AD
:101FD00000F48016B6F5801F06D1032606FA05F434
:101FE000A14341F0706106E0460D360103FA06F6A2
:101FF000B14341F0706122B1460D360103FA06F695
:10200000314300F00046B6F1004F02D11C4EF161A1
:1020100001E01B4E7160F0BD30B500228B071C0F34
:102020000F2303FA04F2164B08338C1053F82430B4
:102030009343134C08348D1044F8253023468C10FC
:1020400053F824308C07240F00FA04F423430C4C7B
:1020500008348D1044F8253030BD0A49DC31086061
:102060007047000000080140000C014000100140D2
:102070000014014000180140001C014000200140F4
:102080000000014000002042DF48006840F00100ED
:10209000DD49086008464068DC490840DA49486084
:1020A00008460068DA490840D749086008460068D1
:1020B00020F4802008600846406820F4FE00486054
:1020C0004FF41F0088607047CF49096821F48031C0
:1020D000CD4A11601146096821F480211160B0F5E4
:1020E000803F03D0B0F5802F0ED106E0C6490968C5
:1020F00041F48031C44A116007E0C349096841F4E2
:10210000A021C14A116000E000BF00BF704710B5B8
:1021100001460022002300204A11012A02D1BA4CB4
:10212000236806E0022A02D1B74C236A01E0B64CCC
:10213000636A01F01F02012494401C400CB101208D
:1021400000E0002010BD38B50020009000240025DC
:1021500000BF3120FFF7DBFF05460098401C0090D0
:102160000098B0F5A06F01D0002DF2D03120FFF71C
:10217000CEFF08B1012400E00024204638BD01460E
:102180000020A14A106820F0F80040EAC100106069
:102190007047A04908607047024600209A4B586873
:1021A00020F47C1042EA01031843974B58607047B3
:1021B00098490866704701460020934A506820F00D
:1021C00003000843506070478F48406800F00C00DF
:1021D0007047014600208C4A506820F0F000084308
:1021E0005060704701460020874A506820F4E06044
:1021F00008435060704701460020834A506820F42D
:10220000605040EAC1005060704729B17E4A527A5E
:1022100002437D4B5A7204E07B4A527A82437A4BE6
:102220005A7270477B49D8310860704701460020D8
:10223000754A506820F440400843506070470021C0
:10224000714A20321170704A82F82010012802D0A1
:1022500004280AD104E001216B4A2032117005E004
:102260000521694A2032117000E000BF00BF7047AD
:102270006949086070476449096A0143624A11620A
:102280007047654944390860704730B50021002225
:10229000002400235C4D6D6805F00C0121B1042978
:1022A00005D0082923D105E05C4D056022E05B4D97
:1022B00005601FE0544D6D6805F47012524D6D6855
:1022C00005F48034022505EB92421CB9544D554368
:1022D00005600BE04C4D6D6805F400351DB1504DA7
:1022E0005543056002E04D4D5543056002E04B4DFE
:1022F000056000BF00BF444D6D6805F0F00109099D
:10230000484D6B5C0568DD4045603F4D6D6805F4E8
:10231000E061090A434D6B5C4568DD4085603A4DDC
:102320006D6805F46051C90A3E4D6B5C4568DD403F
:10233000C560354D6D6805F44041890B3A4D6B5CC5
:10234000C568B5FBF3F5056130BD29B12E4A526968
:1023500002432D4B5A6104E02B4A526982432A4BB7
:102360005A61704729B1284A92690243264B9A6103
:1023700004E0254A92698243234B9A61704729B150
:10238000214AD2690243204BDA6104E01E4AD26935
:1023900082431D4BDA61704729B11B4AD268024360
:1023A000194BDA6004E0184AD2688243164BDA60AF
:1023B000704729B1144A12690243134B1A6104E0B1
:1023C000114A12698243104B1A6170471249403911
:1023D000086070470F49C86470470B49C87170475F
:1023E0000948406A40F080700749486270470146DA
:1023F0000020054A92680A400AB1012000E000204E
:102400007047014988727047001002400000FFF8D1
:10241000FFFFF6FE000042428004424200127A00B2
:1024200000093D00300000204000002010B50446A7
:10243000FE48844208D10121C014FFF7ADFF0021FE
:10244000E014FFF7A9FFC4E0B4F1804F08D10121E7
:102450000846FFF7AEFF00210120FFF7AAFFB8E012
:10246000F348844208D101210220FFF7A2FF002196
:102470000220FFF79EFFACE0EE48844208D1012124
:102480000420FFF796FF00210420FFF792FFA0E051
:10249000E948844208D101210820FFF78AFF002182
:1024A0000820FFF786FF94E0E448844208D1012128
:1024B0001020FFF77EFF00211020FFF77AFF88E051
:1024C000DF48844208D101212020FFF772FF00215C
:1024D0002020FFF76EFF7CE0DA48844208D101211A
:1024E0004014FFF759FF00216014FFF755FF70E01B
:1024F000D548844209D10121C804FFF74DFF0021CE
:102500004FF40020FFF748FF63E0D048844209D130
:1025100001210805FFF740FF00214FF48010FFF76D
:102520003BFF56E0CA48844209D101214805FFF724
:1025300033FF00214FF40010FFF72EFF49E0C5489C
:10254000844208D101214020FFF733FF00214020C1
:10255000FFF72FFF3DE0C048844208D101218020D1
:10256000FFF727FF00218020FFF723FF31E0BB4862
:10257000844208D101218015FFF71BFF0021A0151F
:10258000FFF717FF25E0B648844209D1012108046E
:10259000FFF702FF00214FF48030FFF7FDFE18E047
:1025A000B048844209D101214804FFF7F5FE00211B
:1025B0004FF40030FFF7F0FE0BE0AB48844208D147
:1025C00001218804FFF7E8FE00214FF48020FFF787
:1025D000E3FE10BD00220288944B98420ED0994B26
:1025E00098420BD0B0F1804F08D0914B984205D063
:1025F000904B984202D0904B984204D14FF68F7383
:102600001A404B881A438D4B984207D08C4B984206
:1026100004D04FF6FF431A40CB881A4302808B88C0
:1026200083850B880385814B98420BD0854B98425C
:1026300008D08B4B984205D08A4B984202D08A4BE7
:10264000984201D10B7A038601238382704770B5CB
:10265000002400220023058C4FF6FE7635400584C9
:10266000028C8388048B4FF68F752C40B51E2C404E
:102670000D882C43751E2A400D892A434D882A4314
:102680006A4DA8420BD06F4DA84208D0744DA842A5
:1026900005D0744DA84202D0734DA84213D14FF615
:1026A000F7752A404D892A434FF6FB752A408D88DD
:1026B0002A434FF6FF652B404FF6FF552B408D897F
:1026C0002B43CD892B4383800483CD888586028468
:1026D00070BD70B5002400220023058C4FF6EF7604
:1026E00035400584028C8388048B48F6FF752C40A6
:1026F0004FF6FF452C400D884FF6FF7606EA05257C
:102700002C434FF6DF752A400D8906EA05152A434A
:102710004D8806EA05152A43444DA84202D0494D8A
:10272000A8421DD14FF67F752A404D894FF6FF769E
:1027300006EA05152A434FF6BF752A408D8806EA3A
:1027400005152A434FF6FF352B404FF2FF752B40FE
:102750008D8906EA85052B43CD8906EA85052B433D
:1027600083800483CD880587028470BD70B5002402
:1027700000220023058C4FF6FF6635400584028C4D
:102780008388848B4FF68F752C404FF6FC752C4058
:102790000D882C434FF6FF552A400D894FF6FF76E2
:1027A00006EA05252A434D8806EA05252A431F4DDA
:1027B000A84202D0234DA8421DD14FF2FF752A40F6
:1027C0004D894FF6FF7606EA05252A434FF6FF3579
:1027D0002A408D8806EA05252A434EF6FF752B40D0
:1027E0004DF6FF752B408D8906EA05152B43CD89E3
:1027F00006EA05152B4383808483CD888587028470
:1028000070BD70B5002200230024058C4EF6FF76C3
:1028100035400584038C8488828B48F6FF752A40F6
:102820004FF6FF452A400D8820E00000002C0140B3
:102830000004004000080040000C00400010004070
:102840000014004000340140004C014000500140A1
:102850000054014000180040001C004000200040CF
:102860000040014000440140004801404FF6FF761F
:1028700006EA05252A434DF6FF752B400D8906EA29
:1028800005352B434D8806EA05352B43FA4DA84202
:1028900002D0FA4DA84208D14BF6FF752C408D8925
:1028A0004FF6FF7606EA85152C4384808283CD8817
:1028B000A0F84050038470BD828B4FF2FF331A4062
:1028C0008283828B4FF6FF7303EA01231A438283CC
:1028D0007047F0B50C461546002200210026078CF3
:1028E0004EF6FF7C07EA0C070784828B018C4FF6BB
:1028F000FF7707EA043640F6FF473A404FF6FF7786
:1029000007EA05273A434FF6FF7707EA03373A43CA
:10291000D94FB8420ED0D94FB8420BD0B0F1804F4A
:1029200008D0D74FB84205D0D64FB84202D0D64FC4
:10293000B84206D14DF6FF77394046F48057394307
:1029400005E047F6FF57394044F480573943828306
:102950000184F0BD828B4FF6F3731A408283828B21
:102960000A4382837047F0B50C46154600220021C9
:102970000026078C4FF6FF6C07EA0C070784828B52
:10298000018C4FF6FF7707EA04264FF60C773A40A2
:102990004FF6FF7707EA03172F433A43B64FB84283
:1029A0000ED0B64FB8420BD0B0F1804F08D0B44F24
:1029B000B84205D0B34FB84202D0B34FB84206D1A7
:1029C0004FF6FF57394046F48077394305E04FF220
:1029D000FF57394044F48077394382830184F0BD46
:1029E000028B4FF2FF331A400283028B4FF6FF73C4
:1029F00003EA01231A4302837047F0B50C461546DB
:102A0000002200210026078C4FF6EF7C07EA0C0716
:102A10000784028B018C4FF6FF7707EA041640F615
:102A2000FF473A404FF6FF7707EA03373A434FF63E
:102A3000FF7707EA05273A438F4FB8420ED08F4FF2
:102A4000B8420BD0B0F1804F08D08D4FB84205D0BE
:102A50008C4FB84202D08C4FB84206D14FF6DF7788
:102A6000394046F01007394305E04FF65F773940AB
:102A700044F01007394302830184F0BD028B4FF606
:102A8000F3731A400283028B0A4302837047F0B546
:102A90000C46154600220021068C4FF6FE773E407C
:102AA0000684028B018C4FF60C7632407E1C06EABF
:102AB00003162E433243704EB0420ED06F4EB042DA
:102AC0000BD0B0F1804F08D06D4EB04205D06D4EA6
:102AD000B04202D06C4EB04206D14FF6FD76314086
:102AE00044F00106314305E04FF6F576314044F0FD
:102AF0000106314302830184F0BD70B505460C46E2
:102B00005D4885420ED05D4885420BD0B5F1804FBF
:102B100008D05B48854205D05A48854202D05A48C1
:102B2000854200D100E000BF208850B92389A288E7
:102B300061882846FFF7ABFFE1882846FFF79EFF34
:102B400025E0208804280AD12389A28861882846A4
:102B5000FFF753FFE1882846FFF742FF17E0208880
:102B600008280AD12389A28861882846FFF7FBFE3E
:102B7000E1882846FFF7EEFE09E02389A2886188F4
:102B80002846FFF7A6FEE1882846FFF795FE70BDB0
:102B90002DE9F04105460C4600260127608808B95A
:102BA000022600E00026A088012801D1022700E0CB
:102BB00001272088A0B92389A28861882846FFF7C9
:102BC00066FFE1882846FFF759FF23893A463146D8
:102BD0002846FFF712FFE1882846FFF701FF13E0C0
:102BE0002389A28861882846FFF707FFE1882846E5
:102BF000FFF7F6FE23893A4631462846FFF747FF9E
:102C0000E1882846FFF73AFFBDE8F0810A884B8843
:102C10001A438B881A43CB881A430B891A434B8972
:102C20001A438B891A43A0F8442070474FF6FF716E
:102C3000818000210180C1804180017270470021A4
:102C4000018041808180C180018141818181C18178
:102C50007047002101804180012181800021C180D5
:102C6000018170470021018041808180C180018104
:102C70004181818170470000002C014000340140F7
:102C80000004004000080040000C004021B1028810
:102C900042F00102028004E002884FF6FE731A40FF
:102CA0000280704731B1B0F8442042F40042A0F8ED
:102CB000442005E0B0F84420C2F30E02A0F84420FE
:102CC00070471AB183890B43838102E083898B4368
:102CD000838170478182704741EA0203A0F848303F
:102CE00070471AB183890B43838102E083898B4348
:102CF0008381704701894FF6F87211400181704756
:102D00000A46002101894FF68F7319401143018152
:102D1000704730B504460D4629462046FFF7F0FFC0
:102D2000208940F00700208130BD2DE9F0410446A4
:102D30000D4616461F46602D06D13B460122314600
:102D40002046FFF75AFE05E03B4601223146204669
:102D5000FFF79DFE29462046FFF7D2FF208940F06D
:102D600007002081BDE8F08130B50C4600210189C3
:102D7000C9B24FF6FF7505EA0325154325432943DC
:102D8000018130BD2DE9F04105460E4617469846B3
:102D9000002443463A4631462846FFF7E5FF2C8992
:102DA0004FF6F870044044F007044FF68F7004406B
:102DB00044F070042C81BDE8F081F0B504460D4666
:102DC00016461F463B46324629462046FFF7CCFFB3
:102DD000208940F480402081F0BD018582827047C7
:102DE0000A46002101884FF68F7319401143018074
:102DF0007047F0B50C4615461E4600210022002300
:102E00000189028B038C4FF6F877394021434FF646
:102E1000FC473A4040F201173A434FF6DD773B401A
:102E20004FF6FF7707EA06172F433B4301810283E2
:102E30000384F0BD0A460021018B4FF68F731940C1
:102E40001143018370470A460021018B48F6FF7346
:102E500019404FF6FF7303EA0223194301837047B9
:102E60000A460021818B4FF68F73194011438183ED
:102E700070470A460021818B48F6FF7319404FF6D0
:102E8000FF7303EA022319438183704721B102884B
:102E900042F08002028004E002884FF67F731A40FD
:102EA0000280704721B1828842F00402828004E0EF
:102EB00082884FF6FB731A408280704721B1828866
:102EC00042F00802828004E082884FF6F7731A40CD
:102ED0008280704721B1828842F00102828004E042
:102EE00082884FF6FE731A40828070470A4600219E
:102EF000018B4FF6F77319401143018370470A465F
:102F00000021018B4FF2FF7319404FF6FF7303EA64
:102F100002231943018370470A460021818B4FF633
:102F2000F77319401143818370470A460021818B52
:102F30004FF2FF7319404FF6FF7303EA0223194360
:102F4000818370470A460021018B4FF6FB731940BD
:102F50001143018370470A460021018B4FF6FF336E
:102F600019404FF6FF7303EA0223194301837047A8
:102F70000A460021818B4FF6FB7319401143818370
:102F800070470A460021818B4FF6FF3319404FF6F8
:102F9000FF7303EA02231943818370470A46002125
:102FA000018B4FF67F7319401143018370470A4626
:102FB0000021018BC1F30E014FF6FF7303EA0223D8
:102FC0001943018370470A460021818B4FF67F73B6
:102FD00019401143818370470A460021818BC1F358
:102FE0000E014FF6FF7303EA0223194381837047F2
:102FF0000A460021018C4FF6FD73194011430184EC
:1030000070470A460021018C4FF6F77319401143AF
:10301000018470470A460021018C4FF6DF73194086
:103020004FF6FF7303EA02131943018470470A46FF
:103030000021018C4FF67F7319404FF6FF7303EAAE
:1030400002131943018470470A460021018C4FF690
:10305000FF5319404FF6FF7303EA0223194301841B
:1030600070470A460021018C4FF2FF7319404FF65A
:10307000FF7303EA02231943018470470A460021C3
:10308000018C4DF6FF7319404FF6FF7303EA0233CC
:1030900019430184704730B5002301248C40A3B24A
:1030A000048C9C430484048C02FA01F5ADB22C43D9
:1030B000048430BD30B5002304248C40A3B2048CBA
:1030C0009C430484048C02FA01F5ADB22C430484C1
:1030D00030BD70B503460020002418461830012585
:1030E0008D40ACB21D8CA5431D8409B1082909D1BE
:1030F00000EB6100056825F0700505600568154363
:1031000005600EE00D1FC5F34E052844056825F443
:10311000E045056005684FF6FF7606EA022635436E
:10312000056070BD21B1028842F00202028004E015
:1031300002884FF6FD731A400280704721B1028861
:1031400042F00402028004E002884FF6FB731A404A
:103150000280704721B1828842F08002828004E0C0
:1031600082884FF67F731A408280704702884FF63C
:10317000F7731A40028002880A43028070478288EF
:103180004FF68F731A40828082880A43828070478C
:1031900002894FF6F8731A40028102890A430281BC
:1031A000704702894FF67F731A40028102890A43F1
:1031B000028170478184704781857047818670479E
:1031C0000187704781877047A0F8401070470288D8
:1031D0004FF6FF431A40028002880A43028070477C
:1031E0000146888E70470146088F70470146888FD8
:1031F00070470146B1F8400070470146888C70471F
:103200000146088D704702460020138A0B400BB11F
:10321000012000E000207047CA430282704730B5A9
:103220000246002000230024158A05EA010395893F
:1032300005EA010413B10CB1012000E0002030BD0B
:10324000CA4302827047000010B50446FB4884421E
:1032500009D101218803FFF79FF800214FF4804036
:10326000FFF79AF832E0F648844209D10121480478
:10327000FFF79FF800214FF40030FFF79AF825E0A0
:10328000F048844209D101218804FFF792F8002117
:103290004FF48020FFF78DF818E0EB48844209D105
:1032A0000121C804FFF785F800214FF40020FFF743
:1032B00080F80BE0E548844208D101210805FFF7BA
:1032C00078F800214FF48010FFF773F810BD2DE956
:1032D000F04786B005460E460024A24600BFA14630
:1032E0000027B08900B100BF2F462C8A4CF6FF7032
:1032F0000440F08804432C82AC894EF6F31004405D
:10330000B08831890843718908430443AC81AC8A91
:103310004FF6FF400440B0890443AC8201A8FEF799
:10332000B4FFC648874202D1DDF810A001E0DDF805
:103330000CA0A88900F4004040B10AEBCA0000EBE1
:103340000A1031684900B0FBF1F807E00AEBCA0047
:1033500000EB0A1031688900B0FBF1F86420B8FB7B
:10336000F0F004012009642101FB1089A88900F410
:10337000004040B1322000EBC900B0FBF1F000F09A
:103380000700044308E0322000EB09106421B0FB81
:10339000F1F000F00F0004432C8106B0BDE8F08787
:1033A0004FF41651016000218180C18001810C2100
:1033B000418100218181704710B502460020108AAA
:1033C0004FF2FF0318400B884C8823438C8823431B
:1033D000CC8823431843108210BD00210180418016
:1033E0008180C180704721B1828942F4005282817C
:1033F00004E082894DF6FF731A4082817047F0B570
:103400000346002400260025002040F66A17B94232
:1034100000D100BF1846C1F3421401F01F06012776
:1034200007FA06F5012C01D10C3004E0022C01D181
:10343000103000E014301AB107682F43076002E033
:103440000768AF430760F0BD1AB1838A0B438382DC
:1034500002E0838A8B4383827047028A4FF6F073BF
:103460001A400282028A0A430282704782894FF21E
:10347000FF731A40828182890A438281704721B199
:10348000828942F00202828104E082894FF6FD7354
:103490001A4082817047028A4FF6DF731A40028217
:1034A000028A0A430282704721B1028A42F48042B2
:1034B000028204E0028A4BF6FF731A4002827047D0
:1034C000C1F308028280704701468888C0F3080073
:1034D0007047818941F0010181817047028BD2B22E
:1034E0000283028B42EA012202837047028B02F4BC
:1034F0007F420283028B0A430283704721B1828A92
:1035000042F02002828204E0828A4FF6DF731A4082
:103510008282704721B1828A42F01002828204E0E6
:10352000828A4FF6EF731A408282704721B1828AF5
:1035300042F00802828204E0828A4FF6F7731A4052
:103540008282704721B1828942F40042828103E085
:103550008289C2F30E028281704721B1828A42F4CD
:103560000062828204E0828A4FF2FF731A408282F4
:103570007047828A4FF6FB731A408282828A0A431E
:103580008282704721B1828A42F00202828204E084
:10359000828A4FF6FD731A408282704702460020ED
:1035A000B1F5007F00D100BF13880B400BB10120A3
:1035B00000E00020704701F40072B2F5007F00D1F6
:1035C00000BFCA430280704770B502460024002342
:1035D0000025002040F66A16B14200D100BFC1F3B9
:1035E000421501F01F03012606FA03F3012D02D153
:1035F0009689334006E0022D02D1168A334001E05D
:10360000968A33400C12012606FA04F416883440D8
:1036100013B10CB1012000E0002070BD10B50022F4
:10362000002340F66A14A14200D100BF0A1201240F
:103630009440A3B2DC43048010BD00000038014078
:103640000044004000480040004C00400050004052
:1036500010B58AB0044601214806FEF790FE01210C
:103660000420FEF77FFE4FF48050ADF824001820B0
:103670008DF8270003208DF8260009A96048FEF781
:10368000B5FB4FF40060ADF8240048208DF827000A
:1036900003208DF8260009A95948FEF7A7FB012051
:1036A0008DF81F008DF8200000208DF81A000120F1
:1036B0008DF821008DF8220000208DF81E008DF875
:1036C00023007D2094FBF0F0302191FBF0F080B2DC
:1036D000ADF8180001208DF81B008DF81C000220A9
:1036E0008DF81D0006A94748FDF789FC01208DF8DB
:1036F00015000020ADF810008DF8120001208DF8A3
:10370000140000208DF81300ADF8080049F2A41051
:10371000ADF80A000020ADF80C00ADF80E0002A8CC
:10372000FDF7F7FC012202213648FDF7F1FF1420D6
:103730008DF8040001208DF805008DF806008DF845
:10374000070001A8FDF7B1F92FA003F051FE0AB060
:1037500010BD10B5354A00212A48FDF7BEFE0120F4
:103760003249091F087010BD70B505460C4600218E
:103770002E48001F80F8211080F820108561C56157
:10378000082180F82210217880F82310617880F8D1
:103790002410A17880F82510E17880F8261021798E
:1037A00080F82710617980F82810A17980F8291015
:1037B000E17980F82A1000F118011248FDF798FD10
:1037C00070BD70B505461948001F0078012815D155
:1037D00017A003F00DFE002407E014480B30015D34
:1037E00019A003F005FE601CC4B2082CF5DB17A07D
:1037F00003F0FEFD00200D49091F087070BD000098
:10380000000801400064004043414E20CDA8D0C5CF
:10381000C5E4D6C320202020202020202020C5E47D
:10382000D6C3CDEAB3C90D0A00000000CC080020C1
:103830000D0A3C3C43414EBDD3CAD5B5BDCAFDBE01
:10384000DD3A3E3E20200000256300000D0A000006
:103850001FB501210846FEF785FD0121FC20FEF77A
:1038600081FD0120ADF80C0028208DF80F0001200B
:103870008DF80E0003A9B548FEF7B8FA06208DF8BA
:10388000080001208DF8090000208DF80A000120B1
:103890008DF80B0002A8FDF708F900210846FEF795
:1038A000BBFB0120009000208DF8040008208DF85B
:1038B000050001208DF806006846FEF7B7F90220E2
:1038C000ADF80C0048208DF80F0001208DF80E0097
:1038D00003A99E48FEF78AFA07208DF80800012008
:1038E0008DF8090000208DF80A0001208DF80B00EA
:1038F00002A8FDF7DAF801210020FEF78DFB022077
:10390000009000208DF804000C208DF805000120A7
:103910008DF806006846FEF789F91020ADF80C0016
:1039200048208DF80F0001208DF80E0003A987486C
:10393000FEF75CFA0A208DF8080001208DF80900D6
:1039400000208DF80A0001208DF80B0002A8FDF779
:10395000ACF804210020FEF75FFB1020009000204F
:103960008DF804000C208DF8050001208DF806006C
:103970006846FEF75BF91FBD75490978012903D137
:1039800001200021724A117071490978022903D17E
:10399000022000216E4A11706D490978032903D174
:1039A000032000216A4A1170704710B50120FEF70C
:1039B000A3F928B10120FEF7B0F90120644908708D
:1039C00010BD10B50220FEF797F928B10220FEF7CE
:1039D000A4F902205E49087010BD10B51020FEF752
:1039E0008BF928B11020FEF798F903205849087088
:1039F00010BD10B557A003F0FBFC10BD10B557A0CB
:103A000003F0F6FC10BD10B556A003F0F1FC10BD9C
:103A100070B5054665B90120544908700020544925
:103A2000087001214948FEF774FA5249087010E005
:103A3000012D06D102214548FEF76BFA4D49087069
:103A400007E0022D05D110214048FEF762FA4949EE
:103A50000870FCF7A7FB84B24748007830B1012812
:103A600010D0022826D003286DD146E041480078C6
:103A70003E490978884204D101203F4908703F48F7
:103A8000048060E03B48007839490978884210D1C9
:103A90003B480078401C3A490870084600780228E4
:103AA00002D13549087002E00320334908703548D7
:103AB000048048E032480078022809D13148008863
:103AC0002E490988401AB0F57A7F01DAFFF79BFF8B
:103AD0002B48007801280AD128480088201AB0F520
:103AE0007A7F02DDFFF78AFF01E0FFF782FF002007
:103AF000234908702049087025E01E4800781B49BA
:103B00000978884216D11D4804801E480088201A72
:103B1000C82803DC01201849087013E01948008800
:103B2000201AC8280EDD012013490870002014490E
:103B3000087007E013480088201AC82802DD022018
:103B40000D49087000BF00BF70BD000000080140B3
:103B500044000020B5A5BBF70D0A0000B3A4B0B423
:103B60000D0A0000CBABBBF70D0A00004600002099
:103B70004700002045000020490000204A000020A6
:103B8000480000204C00002008B501211020FEF75D
:103B9000E9FB01210820FEF7E5FB2020ADF800003D
:103BA00010208DF8030003208DF8020069461C48A0
:103BB000FEF71CF90420ADF8000010208DF803007A
:103BC00003208DF8020069461648FEF70FF9202100
:103BD0001348FEF7BAF904211248FEF7B6F908BDFA
:103BE00010B520210E48FEF7A1F920B920210C487C
:103BF000FEF7A9F903E020210948FEF7A6F910BD58
:103C000010B504210748FEF791F920B904210548B1
:103C1000FEF799F903E004210248FEF796F910BD7A
:103C200000100140000C014030B587B004460D463D
:103C300003208DF81A0002208DF815008DF816006B
:103C400001208DF8170001950020ADF80800ADF8AF
:103C50000A00ADF80C00ADF810000C20ADF80E0015
:103C60000121FC20FEF77EFBFB48844222D101218A
:103C70008803FEF777FB6015ADF8180018208DF863
:103C80001B0006A9F548FEF7B1F82015ADF818009D
:103C900048208DF81B0006A9F048FEF7A7F825205C
:103CA0008DF814000120EE490870002048800120A2
:103CB000EC490870EC48844224D101214804FEF705
:103CC0005EFB0420ADF8180018208DF81B0006A933
:103CD000E248FEF78BF80820ADF8180048208DF870
:103CE0001B0006A9DD48FEF781F826208DF8140098
:103CF0000120DB4981F804020020A1F8060202201D
:103D0000D8490870D948844224D101218804FEF79B
:103D100036FB2015ADF8180018208DF81B0006A9F9
:103D2000D348FEF763F8E014ADF8180048208DF88A
:103D30001B0006A9CE48FEF759F827208DF814007D
:103D40000120C74981F808030020A1F80A030320D5
:103D5000C4490870C748844220D10121C804FEF735
:103D60000EFB2015ADF8180018208DF81B00E0148C
:103D7000ADF8180048208DF81B0006A9BE48FEF7D4
:103D800035F834208DF814000120B54981F80C0471
:103D90000020A1F80E040420B2490870B7488442FC
:103DA00024D101210805FEF7EAFAA014ADF81800A5
:103DB00018208DF81B0006A9AF48FEF717F804205D
:103DC000ADF8180048208DF81B0006A9AC48FEF796
:103DD0000DF835208DF814000120A14981F8100557
:103DE0000020A1F8120505209E49087005A8FCF7DF
:103DF0005CFE2046FFF728FA01A92046FFF767FA84
:103E0000002240F227712046FFF7F9FA012240F222
:103E100025512046FFF7F3FA012240F224412046C3
:103E2000FFF7EDFA01212046FFF7DDFA95A003F038
:103E3000DFFA8C480178A3A003F0DAFA07B030BDAE
:103E400010B586B0044601218803FEF78BFA0121E4
:103E50000420FEF787FA4FF40070ADF81400032039
:103E60008DF8160018208DF8170005A97B48FDF77E
:103E7000BDFF4FF48060ADF8140048208DF81700A6
:103E800005A97648FDF7B2FF25208DF81000022025
:103E90008DF811008DF8120001208DF8130004A890
:103EA000FCF703FE6C48FFF7CFF900940020ADF853
:103EB0000400ADF80600ADF80800ADF80C000C20C9
:103EC000ADF80A0069466448FFF701FA002240F2A3
:103ED00027716148FFF793FA012240F225515E48AD
:103EE000FFF78DFA012240F224415B48FFF787FA81
:103EF00001215948FFF777FA01205949087000203D
:103F0000488060A003F074FA7CA003F071FA06B058
:103F100010BD10B540F225514F48FFF755FB012861
:103F200014D183480088B0F5007F03DB4A48FFF7CF
:103F3000CBFA10BD4848FFF7C7FAC1B27C480288E7
:103F40000088401C7A4B18807A48815440F2244102
:103F50004148FFF739FB01281AD100204049488029
:103F60004FF4007273493E48001D02F09DFD7048F9
:103F700000883B49488000206D4908804FF400715B
:103F80006C4802F0AAFD344800883348001D0088C0
:103F900080213148FFF702FBB0B167480178007813
:103FA000401C654A10706548405C2B49091D08801B
:103FB0001046007862490978884205D1002240F213
:103FC00027712548FFF71BFA00BFB2E770B5054619
:103FD0000C462348408800280DDD21484288011DF9
:103FE000284602F061FD1E488078207000201C49A0
:103FF0004880207870BD0020FCE770B504460D466F
:1040000000200AE0225C4E490B780978491C4C4E8E
:1040100031704A49CA54411CC8B2A842F2DB0E486A
:104020000C30008800F0800028B9012240F227718E
:104030000948FFF7E4F970BD70B50446002526462F
:1040400001E0681C85B216F8011B0029F9D1E9B21C
:104050002046FFF7D2FF70BD003801400008014044
:10406000F4080020600000200044004000480040A8
:10407000000C0140004C0040001001400050004086
:10408000001401400D0D0D3D3D3D3D3D3D3D3D3D8F
:104090003D3D20C4A7C5AEBFAAB7A2B0E52053548A
:1040A0004D33324631303320CDE2C9E8B3F5CABCD6
:1040B000B1A8B8E6203D3D3D3D3D3D3D3D3D3D3D4A
:1040C0000D00000055534152542564B3F5CABCBBE2
:1040D000AFC5E4D6C3202020202020BDD3CAD5D62A
:1040E000D0B6CFA1A2BFD5CFD0D6D0B6CF2C20B7D7
:1040F000A2CBCDD6D0B6CF0D000000005553415213
:104100005431B3F5CABCBBAFC5E4D6C320202020D0
:104110002020BDD3CAD5D6D0B6CFA1A2BFD5CFD08F
:10412000D6D0B6CF2C20B7A2CBCDD6D0B6CF0D00EF
:10413000620000200814002050000020080F00201A
:104140005100002070B58CB004460025264600E0E2
:104150006D1C16F8011B0029FAD100BFFE48FDF7BF
:1041600011FD0028FADCFD48007840BB0120FB4926
:10417000087001228021FA48FFF766F901210846FC
:10418000FEF7E3F80021F448FDF7E5FCF448001DD4
:1041900001900020079005900294089080200690DE
:1041A0001020039040010490002009900B904FF4E0
:1041B00080500A9001A9E848FDF7A2FC00BF002149
:1041C000E548FDF7C8FCA9B2E348FDF7D9FCE24891
:1041D000443804650121E048FDF7BDFC0CB070BD1A
:1041E00010B586B0044601214804FEF7C8F8012145
:1041F0000420FEF7B7F80420ADF8140003208DF872
:10420000160018208DF8170005A9D648FDF7EEFD19
:104210000820ADF8140048208DF8170005A9D148F2
:10422000FDF7E4FD26208DF8100002208DF8110026
:104230008DF8120001208DF8130004A8FCF735FC5E
:1042400000940020ADF80400ADF80600ADF80800B9
:10425000ADF80C000C20ADF80A006946C248FFF723
:1042600036F8002240F22771BF48FFF7C8F8012254
:1042700040F22551BC48FFF7C2F8012240F2244128
:10428000B948FFF7BCF80121B748FFF7ACF80120A7
:10429000B64981F804020020A1F80602B4A003F098
:1042A000A7F806B010BD10B540F22551AE48FFF793
:1042B0008BF9012813D1BC480088FF2803DDAA48E8
:1042C000FFF702F910BDA848FFF7FEF8C1B2B648E3
:1042D00002880088401CB44B1880B4488154A2481E
:1042E000008800F01000D8B10020A049A1F8060213
:1042F0004FF48072AD49AE4802F0D6FBAA48008860
:104300009A49A1F806020020A74908804FF480715D
:10431000A64802F0E2FB944800889348001D0088FC
:104320009148008800F08000F0B18F480C30008880
:1043300000F08000C0B19F4801780078401C9D4A81
:1043400010709D48405C8849091D0880104600781F
:104350009A490978884207D183480C30008820F0B8
:10436000800081490C31088000BFABE770B505467D
:104370000C467E48B0F80602002810DD7B48B0F8F5
:1043800006228B49284602F08FFB784890F80602F7
:10439000207000207549A1F80602207870BD002029
:1043A000FCE770B5024600200AE0145C834B1D78E0
:1043B0001B785B1C814E33707F4B5C55431CD8B21D
:1043C0008842F2DB68480C30008800F0800038B981
:1043D00065480C30008840F08000634B0C33188037
:1043E00070BD70B504460025264601E0681C85B204
:1043F00016F8011B0029F9D1E9B22046FFF7D1FFD9
:1044000070BD10B586B004466D48C06940F4802088
:104410006B49C8610846806940F00800886108154A
:10442000ADF8140003208DF8160018208DF8170041
:1044300005A96448FDF7DAFC4FF40060ADF81400FC
:1044400048208DF8170005A95E48FDF7CFFC27200E
:104450008DF8100002208DF811008DF81200012057
:104460008DF8130004A8FCF720FB5748FEF7ECFE7C
:1044700000940020ADF80400ADF80600ADF8080087
:10448000ADF80C000C20ADF80A0069464E48FEF766
:104490001EFF002240F227714B48FEF7B0FF0122B9
:1044A00040F225514848FEF7AAFF012240F224417C
:1044B0004548FEF7A4FF01214348FEF794FF4FF65D
:1044C0000F70414908800120284981F80803002025
:1044D000A1F80A033DA002F08BFF06B010BD10B595
:1044E0003948008800F0200098B146480088FF282D
:1044F00003DD3548001D008810BD3348001D0088CD
:10450000C1B2404802880088401C3E4B18803E489B
:1045100081542D48008800F01000D8B100201349C4
:10452000A1F80A034FF480723749384802F0BCFA08
:10453000344800880D49A1F80A0300203149088059
:104540004FF48071304802F0C8FA1F4800881E48B6
:10455000001D5DE05DE000004400024064000020BA
:10456000003801400008014000440040F4080020E9
:104570000D555341525432B3F5CABCBBAFC5E4D656
:10458000C3202020202020BDD3CAD5D6D0B6CFA1AD
:10459000A2BFD5CFD0D6D0B6CF2C20B7A2CBCDD608
:1045A000D0B6CF0D000000006600002008160020E5
:1045B000FC0A0020520000200810002053000020B8
:1045C00000100240000C0140004800400D555341CE
:1045D000525433B3F5CABCBBAFC5E4D6C3202020C8
:1045E000202020BDD3CAD5D6D0B6CFA1A2BFD5CF6B
:1045F000D0D6D0B6CF2C20B7A2CBCDD6D0B6CF0D4B
:10460000000000006800002008170020000C0020B7
:104610000088F848008800F08000F0B1F5480C30C0
:10462000008800F08000C0B1F34801780078401C99
:10463000F14A1070F148405CEE49091D08801046AF
:104640000078EF490978884207D1EA480C300088A1
:1046500020F08000E7490C31088000BF4CE770B5BE
:1046600005460C46E748B0F80A03002811DDE54886
:10467000B0F80A2300F54371284602F015FAE14824
:1046800090F80A0320700020DE49A1F80A03207880
:1046900070BD0020FCE770B5024600200AE0145C03
:1046A000D74B1D781B785B1CD54E3370D34B5C55B4
:1046B000431CD8B28842F2DBCE480C30008800F0B0
:1046C000800038B9CB480C30008840F08000C94BDE
:1046D0000C33188070BD70B504460025264601E0F5
:1046E000681C85B216F8011B0029F9D1E9B22046F1
:1046F000FFF7D1FF70BD10B586B00446C248C0694F
:1047000040F40020C049C8610846806940F01000AC
:1047100088610815ADF8140003208DF816001820E4
:104720008DF81700C814ADF8140048208DF8170054
:1047300005A9B648FDF75AFB34208DF81000022079
:104740008DF811008DF8120001208DF8130004A8D7
:10475000FCF7ABF9AE48FEF777FD00940020ADF80A
:104760000400ADF80600ADF80800ADF80C000C2010
:10477000ADF80A006946A648FEF7A9FD002240F2FE
:104780002771A348FEF73BFE012240F22551A048C5
:10479000FEF735FE012240F224419D48FEF72FFE30
:1047A00001219B48FEF71FFE4FF60F7098490880C5
:1047B0000120944981F80C040020A1F80E0495A072
:1047C00002F016FE06B010BD10B59148008800F04A
:1047D000200098B19D480088FF2803DD8C48001D0B
:1047E000008810BD8A48001D0088C1B29748028821
:1047F0000088401C954B1880954881548448008857
:1048000000F01000D8B100207E49A1F80E044FF44A
:1048100080728F498F4802F047F98C4800887949A7
:10482000A1F80E040020894908804FF4807188485F
:1048300002F053F9764800887548001D00887448D6
:10484000008800F08000F0B171480C30008800F062
:104850008000C0B1804801780078401C7E4A10700A
:104860007E48405C6A49091D0880104600787C49F2
:104870000978884207D166480C30008820F0800013
:1048800063490C31088000BFABE770B505460C46A4
:104890005C48B0F80E04002810DD5A48B0F80E2429
:1048A0006C49284602F000F9564890F80E04207032
:1048B00000205449A1F80E04207870BD0020FCE7C8
:1048C00070B5024600200AE0145C654B1D781B7829
:1048D0005B1C634E3370614B5C55431CD8B28842FD
:1048E000F2DB4B480C30008800F0800038B94848B3
:1048F0000C30008840F08000454B0C33188070BDB0
:1049000070B504460025264601E0681C85B216F8FD
:10491000011B0029F9D1E9B22046FFF7D1FF70BD94
:1049200010B586B004463848C06940F48010364956
:10493000C8610846806940F0300088618814ADF88D
:10494000140003208DF8160018208DF8170005A913
:104950002E48FDF74BFA0420ADF8140048208DF8DE
:10496000170005A93F48FDF741FA35208DF81000E2
:1049700002208DF811008DF8120001208DF813002F
:1049800004A8FCF792F83848FEF75EFC009400207B
:10499000ADF80400ADF80600ADF808000C20ADF845
:1049A0000A000020ADF80C0069462F48FEF78FFC86
:1049B000002240F227712C48FEF721FD012240F22F
:1049C00025512948FEF71BFD012240F224412648CB
:1049D000FEF715FD01212448FEF705FD4FF60F7087
:1049E000214908800120074981F810050020A1F81D
:1049F00012053BE000480040540000200811002050
:104A000055000020F4080020001002400010014072
:104A1000004C00400D554152543420B3F5CABCBB84
:104A2000AFC5E4D6C3202020202020BDD3CAD5D6D0
:104A3000D0B6CFA1A2BFD5CFD0D6D0B6CF2C20B77D
:104A4000A2CBCDD6D0B6CF0D000000006A0000206A
:104A500008180020040D0020560000200812002035
:104A60005700002000140140005000405AA002F0FE
:104A7000BFFC06B010BD10B56548008800F02000EE
:104A800088B164480088FF2802DD6148808810BD35
:104A90005F488088C1B25F4802880088401C5D4B37
:104AA00018805D4881545A48008800F01000D0B149
:104AB00000205A49A1F812054FF48072564958480F
:104AC00001F0F2FF534800885449A1F81205002074
:104AD000504908804FF480714F4801F0FEFF4C4868
:104AE00000884B4880884A48008800F08000D0B198
:104AF0004748808900F08000A8B14A4801780078D2
:104B0000401C484A10704848405C41498880104623
:104B1000007846490978884205D13D48808920F0CF
:104B200080003B49888100BFB1E770B505460C465F
:104B30003A48B0F81205002810DD3848B0F81225C0
:104B40003749284601F0B0FF344890F8120520702C
:104B500000203249A1F81205207870BD0020FCE742
:104B600070B5024600200AE0145C304B1D781B78BB
:104B70005B1C2E4E33702C4B5C55431CD8B28842C4
:104B8000F2DB2348808900F0800028B92048808922
:104B900040F080001E4B988170BD70B50446002522
:104BA000264601E0681C85B216F8011B0029F9D1E0
:104BB000E9B22046FFF7D4FF70BD00BF704700BFC9
:104BC0001B4A128802F04002002AF9D0C2B2184BE8
:104BD0001B1D1A80704700000D554152543520B3FB
:104BE000F5CABCBBAFC5E4D6C3202020202020BD21
:104BF000D3CAD5D6D0B6CFA1A2BFD5CFD0D6D0B646
:104C0000CF2C20B7A2CBCDD6D0B6CF0D0000000060
:104C1000005000406C00002008190020F40800201B
:104C2000080E002058000020081300205900002022
:104C3000003801401FB501210846FDF7A0FB4FF0E9
:104C40008040FEF757F80020ADF80A00ADF80600E6
:104C500042F20F70ADF8080041F61F40ADF80400B5
:104C600000208DF80C0001A94FF08040FDF7B2FC48
:104C700001218807FEF7D0FA012211469007FEF7BE
:104C800020F84FF4A060FBF70BFF1C208DF800000C
:104C900001208DF8030002208DF8010001208DF81D
:104CA00002006846FBF701FF01218807FDF7EEFFD0
:104CB0001FBD10B501218807FEF7B1FA01280BD1FD
:104CC00006480088401C05490880012004490870F6
:104CD00001218007FEF7B4FA10BD00006E0000202D
:104CE0007000002000B589B001210846FDF747FBA0
:104CF00001210420FDF736FB01210846FDF732FBB8
:104D000001212B48FDF743F901212A48FDF73FF91E
:104D100018208DF823004FF40040ADF82000032048
:104D20008DF8220008A92448FDF760F84FF0804074
:104D3000FDF7E0FF0020ADF81A00ADF81600632083
:104D4000ADF8180040F2CF20ADF8140000208DF827
:104D50001C0005A94FF08040FDF73CFC01A8FDF7C1
:104D60006EFF6020ADF804000020ADF80C000120BB
:104D7000ADF806000020ADF80A0001A94FF0804010
:104D8000FDF765FC01218807FDF780FF09B000BD34
:104D900010B5044621464FF08040FEF70FFA10BDD3
:104DA00010B50446012221469007FEF716F810BD03
:104DB00000011800000230000008014000B587B073
:104DC00001210220FDF7DBFA01210820FDF7CAFAD4
:104DD00001210846FDF7C6FA01212F48FDF7D7F853
:104DE00048208DF81B001020ADF8180003208DF826
:104DF0001A0006A92948FCF7F9FF2948FDF77AFFB0
:104E00000020ADF81200ADF80E004FF6FF70ADF8BF
:104E100010004720ADF80C0000208DF8140003A905
:104E20001F48FDF7D7FB0020ADF800000F20ADF8BC
:104E300008000020ADF80200ADF806000120ADF832
:104E4000040069461648FDF7A3FE50211448FDF7FB
:104E500057FF04211248FEF79BF901211048FDF786
:104E600015FF07B000BD10B50D48FEF7B9F9401C9D
:104E70000C4991FBF0F010BD10B50948FEF7B3F9ED
:104E8000401C642100FB01F40548FEF7A9F9401C11
:104E900094FBF0F010BD000000081A00000C014067
:104EA0000004004040420F0010B5044622464FF473
:104EB0008071FE48FDF74BF810BD10B50446224640
:104EC0004FF40071F948FDF742F810BD38B50024E1
:104ED00006E0002500E06D1CB5F57A7FFBD3641C6D
:104EE000B4F57A7FF5D301210820FDF73BFA1420B1
:104EF0008DF8030003208DF802004FF48070ADF8A8
:104F000000006946E948FCF771FF4FF40070ADF806
:104F100000006946E548FCF769FF0120FFF7C4FF80
:104F20000120FFF7CAFF38BD10B50120FFF7C5FF0C
:104F30000120FFF7B9FF0020FFF7BFFF0020FFF7B8
:104F4000B3FF10BD10B50020FFF7B7FF0120FFF73A
:104F5000ABFF0120FFF7B1FF10BD70B5054600247F
:104F600011E080212141294009B1012100E0002107
:104F70000846FFF7A2FF0120FFF796FF0020FFF78A
:104F800093FF601CC4B2082CEBDB0120FFF78CFF01
:104F90000020FFF789FF70BD10B50446FFF7C4FF7E
:104FA0007820FFF7DAFF0020FFF7D7FF2046FFF752
:104FB000D4FFFFF7C7FF10BD70B505460E46FFF7DB
:104FC000B3FF7820FFF7C9FF4020FFF7C6FF00249A
:104FD00004E0285DFFF7C1FF601CC4B2B442F8DBF7
:104FE000FFF7B0FF70BD70B505460C4645F0B00048
:104FF000FFF7D2FF102141EA1410FFF7CDFF04F0B4
:105000000F00FFF7C9FF70BD10B500240BE00021B1
:105010002046FFF7E8FFA64901EBC4108021FFF707
:10502000CBFF601CC4B2082CF1DB10BD00200CE0EB
:10503000002106E000229E4B03EBC0135A544A1C89
:10504000D1B28029F6DB421CD0B20828F0DB7047D1
:1050500010B5FFF73BFFAE20FFF79EFFD520FFF70F
:105060009BFF8020FFF798FFA820FFF795FF3F20C8
:10507000FFF792FFD320FFF78FFF0020FFF78CFF91
:105080004020FFF789FFA120FFF786FFC820FFF728
:1050900083FFDA20FFF780FF1220FFF77DFF8120DA
:1050A000FFF77AFFCF20FFF777FFD920FFF774FFD4
:1050B000F120FFF771FFDB20FFF76EFF3020FFF7D5
:1050C0006BFFA420FFF768FFA620FFF765FF8D2088
:1050D000FFF762FF1420FFF75FFFAF20FFF75CFFD1
:1050E000FFF7A4FFFFF790FF10BD10B502460120A7
:1050F00000E050430B1EA1F10101FAD110BD2DE9D2
:10510000F04305460C461F46079E4FF0000C002159
:105110006B1E34E032F91100B04201DD012000E0E5
:10512000002032F91380B04502DD4FF0010801E0A4
:105130004FF0000840451FD034F9130034F91180B6
:10514000A0EB080032F91180A6EB080800FB08F07C
:1051500032F9138032F91190A8EB090890FBF8F0AE
:1051600034F911804044B84206DDBCF1000F01D192
:10517000012000E0002084460B46481C01B2A942F1
:10518000C8DB0CF0FF00BDE8F0832DE9FF4F87B0CE
:105190008B4614469946079801F0D8FE05460E4600
:1051A000584601F0D3FE07462A46334602F036FF42
:1051B000404A414BCDE9000101F04BFE00223F4B3C
:1051C000CDE9020101F0D3FDCDE9040101F0F0FECB
:1051D0000FFA80FA4C4507DAA2450BDBCA4509DC19
:1051E00001200BB0BDE8F08FA24501DACA4501DC11
:1051F0000120F6E70020F4E72DE9F04706460D46CA
:10520000174698462846E91705EB5171C9100FFA61
:1052100081F905EB0801481EC11700EB5171C91057
:10522000491C0FFA81FA002D07DAA9F101000FFAE3
:1052300080F9AAF101000FFA80FA4C4614E0002E22
:1052400010DB7F2E0EDC002C0CDB072C0ADCF1B20D
:10525000E0B2FFF7C8FE164901EBC41188193946C0
:10526000FFF7AAFE601C04B25445E8DBBDE8F087F6
:105270002DE9F04304460D4616461F46284644E0F5
:1052800022463DE0002A39DB7F2A37DC002835DB67
:105290003F2833DC4FEAE07C00EB5C7C4FEAEC0C0F
:1052A000DFF80C8008EBCC1C0AE00000000C014089
:1052B000081A00201F85EB51B81E09400080664087
:1052C0001CF802C003464FEAE07800EB58784FEA3A
:1052D000E808A0EBC8094FF0010808FA09F82CEA21
:1052E000080C01464FEAE07800EB58784FEAE808EE
:1052F000DFF8209409EBC81808F802C0511C0AB264
:10530000A1199142BEDC411C08B2E9198142B7DC07
:10531000BDE8F083002011E000210BE0FD4A02EB24
:10532000C012525C82F0FF02FA4B03EBC0135A54D6
:105330004A1CD1B28029F1DB421CD0B20828EBDB39
:1053400070472DE9F04304460D4616461F46284691
:1053500038E0224631E0002A2DDB7F2A2BDC0028B2
:1053600029DB3F2827DC4FEAE07C00EB5C7C4FEA3E
:10537000EC0CDFF8A08308EBCC1C1CF802C0034641
:105380004FEAE07800EB58784FEAE808A0EBC8094C
:105390004FF0010808FA09F88CEA080C01464FEAB8
:1053A000E07800EB58784FEAE808DFF8689309EBFB
:1053B000C81808F802C0511C0AB2A1199142CADCEF
:1053C000411C08B2E9198142C3DCBDE8F0832DE934
:1053D000FF4F80460E469146DDF834B0002500248C
:1053E0004A4631464046039BFFF742FF00BF5EE05E
:1053F000002558E008EB0500002852DB08EB05000B
:105400007F284EDC3046F11706EB5171C9100FB200
:10541000F11706EB5171C910A6EBC10A002E05DA8F
:10542000781E07B20AF108000FFA80FA381900282E
:1054300017DB3819072814DC3819B64901EBC010FE
:1054400008EB0501405C04FB09511BF8011001FA4F
:105450000AF108433919AF4A02EBC11108EB050202
:1054600088543819401C00281BDB3819401C0728B9
:1054700017DC3819401CA74901EBC01008EB0501E7
:10548000405C04FB09511BF80110CAF108021141EC
:1054900008433919491C9F4A02EBC11108EB050268
:1054A0008854681CC5B24D45A4DB601CC4B2039986
:1054B000481EC11700EB5171012202EBE101A1422C
:1054C00096DCBDE8FF8FF8B506460F4614461D462C
:1054D000082D0CD1A4F120008F4901EB00101023FE
:1054E0000822394600903046FFF771FF0FE0062D85
:1054F0000DD1A4F1200000EB4000884901EB4000F1
:1055000008230622394600903046FFF760FFF8BDB9
:105510002DE9FE4F07468A46144698460025AB46BD
:10552000002672E0605D00F0800058B94FF0010B7A
:105530002846691C8DB2205C8DF8040000208DF88F
:10554000050013E04FF0020B2846691C8DB2205C69
:105550008DF80400605D00B95AE02846691C8DB2E0
:10556000205C8DF8050000208DF80600BBF1010FCE
:105570000BD19DF80420B91908B243465146FFF7F4
:10558000A2FF06EB080086B23FE04FF000090EE0F4
:10559000C9EBC90101EB8101614A881801A901F039
:1055A000A7FA00B90EE009F101001FFA80F9C9EB72
:1055B000C90101EB81015A4A88185AA101F098FAF1
:1055C0000028E5D100BFB8F1080F12D1C9EBC9001E
:1055D00000EB800052490844C01CB919009008B281
:1055E00010231A465146FFF7F2FE06F1100086B26C
:1055F0000BE0B8F1060F08D1B91908B206233F2213
:105600005146FFF760FFB01D86B2605D002889D16A
:1056100000BFBDE8FE8F2DE9F047064689461746D4
:105620001D46DDF82080002417E0281B411E0A20BB
:10563000FFF75BFDB7FBF0F00A21B0FBF1F201FBD5
:10564000120000F1300A04FB086108B243465246DA
:105650004946FFF738FF601CC4B2AC42E5DBBDE849
:10566000F0872DE9F04F80468A4615461E46DDF844
:105670002490002D07DB4B462B2251464046FFF776
:1056800022FF2F4606E04B462D2251464046FFF7AB
:105690001AFF6F42002418E0301B411E0A20FFF75A
:1056A00024FDB7FBF0F00A21B0FBF1F201FB120080
:1056B00000F1300B611C01FB098108B24B465A46D0
:1056C0005146FFF700FF601CC4B2B442E4DBBDE802
:1056D000F08F2DE9F04706468A4691461F46DDF8D1
:1056E000208000242CE0381B411E1020FFF7FDFC19
:1056F000B9FBF0F000F00F050A2D15DA05F13001C5
:10570000CAB204FB086108B243465146FFF7DBFE0C
:1057100014E00000081A00203082000820880008E9
:105720005A8A00080000000005F13701CAB204FBE4
:10573000086108B243465146FFF7C5FE601CC4B27B
:10574000BC42D0DBBDE8F0872DE9F047064689462C
:1057500017461D46DDF82080002414E0281B411E5A
:105760000220FFF7C2FCB7FBF0F000F0010000F1EF
:10577000300A04FB086108B2434652464946FFF727
:10578000A2FE601CC4B2AC42E8DBBDE8F0872DE9A4
:10579000FF5F86B0074614461D46DDF85080169E12
:1057A000002213462046294601F052FC06D8334613
:1057B0002B2238460799FFF786FE07E033462D2255
:1057C00038460799FFF77FFE85F0004520462946B9
:1057D00001F00DFC8246504601F0C9FB22462B46E3
:1057E000CDE9040101F0C0FA04460D460A201599DE
:1057F000FFF77BFC8146484601F0B9FB22462B4669
:10580000CDE9000101F0B3FACDE9020102F0C6FCD6
:10581000CDE9040101F0EBFB8346BBFBF9F08244C8
:10582000B91908B24346524600960799FFF7F3FEAE
:1058300008F1010101FB067108B233462E220799D7
:10584000FFF741FE08F1020101FB067108B2009664
:105850005A46159B0799FFF7DEFE0AB0BDE8F09F98
:105860000FB470B5C2B005460E4614464AA8019062
:1058700002A8019A499901F0CBFD0020019023462E
:1058800002AA31462846FFF743FE42B070BC5DF8DD
:1058900014FB70B50346002B20DB7F2B1EDC002998
:1058A0001CDB3F291ADCCC1701EB5474E410F74DD4
:1058B00005EBC414E45C0A46CD1701EB5575ED10F9
:1058C000A1EBC5060125B5402C430846CD1701EBD9
:1058D0005575ED10ED4E06EBC515EC5470BD70B569
:1058E0000246002A19DB7F2A17DC002915DB3F2935
:1058F00013DCCC1701EB5474E410E44D05EBC41435
:10590000A45CCD1701EB5575ED10A1EBC506012583
:10591000B5402C400CB1012070BD0020FCE72DE902
:10592000FF4F86B0069E079CDDF82080DDF82490AE
:105930000020019000904C450FD1464502DDB24653
:105940004646D046354605E021462846FFF7A1FFEA
:10595000681C05B24545F7DD99E046450FD14C4539
:1059600002DDA2464C46D146274605E03946304680
:10597000FFF78FFF781C07B24F45F7DD87E04645FC
:1059800005DDB2464646D046A2464C46D1464C4579
:1059900007DD604204B2C9F100000FFA80F901206E
:1059A0000190A9EB0400A8EB0601884207DDB2468E
:1059B00026465446C246C846D14601200090A8EB70
:1059C000060000B20590A9EB04000FFA80FB4FEA35
:1059D0004B0000B203900598ABEB0000400000B212
:1059E00002900598C0EB4B0000B204903546274664
:1059F000019838B1009828B1684201B23846FFF7E3
:105A000048FF12E0019828B1784201B22846FFF71A
:105A100040FF0AE0009820B129463846FFF739FFD9
:105A200003E039462846FFF734FF2EE0681C05B234
:105A30000498002805DADDE90310084400B2049058
:105A400006E0781C07B202990498084400B204905A
:105A5000019838B1009828B1684201B23846FFF782
:105A600018FF12E0019828B1784201B22846FFF7EA
:105A700010FF0AE0009820B129463846FFF709FFD9
:105A800003E039462846FFF704FF4545CEDB0AB060
:105A9000BDE8F08F2DE9F04705460E4617469846BB
:105AA000DDF820A0BAF1000F24D12C460CE03146DD
:105AB0002046FFF7EEFE06EB0800401E01B220462E
:105AC000FFF7E7FE601C04B2E819A042EFDC3446A1
:105AD0000BE021462846FFF7DCFEE919491E08B213
